{"abi":[{"type":"constructor","inputs":[],"stateMutability":"nonpayable"},{"type":"function","name":"agents","inputs":[{"name":"","type":"uint256","internalType":"uint256"}],"outputs":[{"name":"name","type":"string","internalType":"string"},{"name":"level","type":"uint256","internalType":"uint256"}],"stateMutability":"view"},{"type":"function","name":"approve","inputs":[{"name":"to","type":"address","internalType":"address"},{"name":"tokenId","type":"uint256","internalType":"uint256"}],"outputs":[],"stateMutability":"nonpayable"},{"type":"function","name":"balanceOf","inputs":[{"name":"owner","type":"address","internalType":"address"}],"outputs":[{"name":"","type":"uint256","internalType":"uint256"}],"stateMutability":"view"},{"type":"function","name":"getAgent","inputs":[{"name":"tokenId","type":"uint256","internalType":"uint256"}],"outputs":[{"name":"name","type":"string","internalType":"string"},{"name":"level","type":"uint256","internalType":"uint256"}],"stateMutability":"view"},{"type":"function","name":"getApproved","inputs":[{"name":"tokenId","type":"uint256","internalType":"uint256"}],"outputs":[{"name":"","type":"address","internalType":"address"}],"stateMutability":"view"},{"type":"function","name":"isApprovedForAll","inputs":[{"name":"owner","type":"address","internalType":"address"},{"name":"operator","type":"address","internalType":"address"}],"outputs":[{"name":"","type":"bool","internalType":"bool"}],"stateMutability":"view"},{"type":"function","name":"mint","inputs":[{"name":"to","type":"address","internalType":"address"},{"name":"name","type":"string","internalType":"string"}],"outputs":[{"name":"","type":"uint256","internalType":"uint256"}],"stateMutability":"nonpayable"},{"type":"function","name":"name","inputs":[],"outputs":[{"name":"","type":"string","internalType":"string"}],"stateMutability":"view"},{"type":"function","name":"owner","inputs":[],"outputs":[{"name":"","type":"address","internalType":"address"}],"stateMutability":"view"},{"type":"function","name":"ownerOf","inputs":[{"name":"tokenId","type":"uint256","internalType":"uint256"}],"outputs":[{"name":"","type":"address","internalType":"address"}],"stateMutability":"view"},{"type":"function","name":"renounceOwnership","inputs":[],"outputs":[],"stateMutability":"nonpayable"},{"type":"function","name":"safeTransferFrom","inputs":[{"name":"from","type":"address","internalType":"address"},{"name":"to","type":"address","internalType":"address"},{"name":"tokenId","type":"uint256","internalType":"uint256"}],"outputs":[],"stateMutability":"nonpayable"},{"type":"function","name":"safeTransferFrom","inputs":[{"name":"from","type":"address","internalType":"address"},{"name":"to","type":"address","internalType":"address"},{"name":"tokenId","type":"uint256","internalType":"uint256"},{"name":"data","type":"bytes","internalType":"bytes"}],"outputs":[],"stateMutability":"nonpayable"},{"type":"function","name":"setApprovalForAll","inputs":[{"name":"operator","type":"address","internalType":"address"},{"name":"approved","type":"bool","internalType":"bool"}],"outputs":[],"stateMutability":"nonpayable"},{"type":"function","name":"setLevel","inputs":[{"name":"tokenId","type":"uint256","internalType":"uint256"},{"name":"newLevel","type":"uint256","internalType":"uint256"}],"outputs":[],"stateMutability":"nonpayable"},{"type":"function","name":"supportsInterface","inputs":[{"name":"interfaceId","type":"bytes4","internalType":"bytes4"}],"outputs":[{"name":"","type":"bool","internalType":"bool"}],"stateMutability":"view"},{"type":"function","name":"symbol","inputs":[],"outputs":[{"name":"","type":"string","internalType":"string"}],"stateMutability":"view"},{"type":"function","name":"tokenURI","inputs":[{"name":"tokenId","type":"uint256","internalType":"uint256"}],"outputs":[{"name":"","type":"string","internalType":"string"}],"stateMutability":"view"},{"type":"function","name":"totalSupply","inputs":[],"outputs":[{"name":"","type":"uint256","internalType":"uint256"}],"stateMutability":"view"},{"type":"function","name":"transferFrom","inputs":[{"name":"from","type":"address","internalType":"address"},{"name":"to","type":"address","internalType":"address"},{"name":"tokenId","type":"uint256","internalType":"uint256"}],"outputs":[],"stateMutability":"nonpayable"},{"type":"function","name":"transferOwnership","inputs":[{"name":"newOwner","type":"address","internalType":"address"}],"outputs":[],"stateMutability":"nonpayable"},{"type":"event","name":"AgentMinted","inputs":[{"name":"tokenId","type":"uint256","indexed":true,"internalType":"uint256"},{"name":"to","type":"address","indexed":true,"internalType":"address"},{"name":"name","type":"string","indexed":false,"internalType":"string"},{"name":"level","type":"uint256","indexed":false,"internalType":"uint256"}],"anonymous":false},{"type":"event","name":"Approval","inputs":[{"name":"owner","type":"address","indexed":true,"internalType":"address"},{"name":"approved","type":"address","indexed":true,"internalType":"address"},{"name":"tokenId","type":"uint256","indexed":true,"internalType":"uint256"}],"anonymous":false},{"type":"event","name":"ApprovalForAll","inputs":[{"name":"owner","type":"address","indexed":true,"internalType":"address"},{"name":"operator","type":"address","indexed":true,"internalType":"address"},{"name":"approved","type":"bool","indexed":false,"internalType":"bool"}],"anonymous":false},{"type":"event","name":"OwnershipTransferred","inputs":[{"name":"previousOwner","type":"address","indexed":true,"internalType":"address"},{"name":"newOwner","type":"address","indexed":true,"internalType":"address"}],"anonymous":false},{"type":"event","name":"Transfer","inputs":[{"name":"from","type":"address","indexed":true,"internalType":"address"},{"name":"to","type":"address","indexed":true,"internalType":"address"},{"name":"tokenId","type":"uint256","indexed":true,"internalType":"uint256"}],"anonymous":false},{"type":"error","name":"ERC721IncorrectOwner","inputs":[{"name":"sender","type":"address","internalType":"address"},{"name":"tokenId","type":"uint256","internalType":"uint256"},{"name":"owner","type":"address","internalType":"address"}]},{"type":"error","name":"ERC721InsufficientApproval","inputs":[{"name":"operator","type":"address","internalType":"address"},{"name":"tokenId","type":"uint256","internalType":"uint256"}]},{"type":"error","name":"ERC721InvalidApprover","inputs":[{"name":"approver","type":"address","internalType":"address"}]},{"type":"error","name":"ERC721InvalidOperator","inputs":[{"name":"operator","type":"address","internalType":"address"}]},{"type":"error","name":"ERC721InvalidOwner","inputs":[{"name":"owner","type":"address","internalType":"address"}]},{"type":"error","name":"ERC721InvalidReceiver","inputs":[{"name":"receiver","type":"address","internalType":"address"}]},{"type":"error","name":"ERC721InvalidSender","inputs":[{"name":"sender","type":"address","internalType":"address"}]},{"type":"error","name":"ERC721NonexistentToken","inputs":[{"name":"tokenId","type":"uint256","internalType":"uint256"}]},{"type":"error","name":"OwnableInvalidOwner","inputs":[{"name":"owner","type":"address","internalType":"address"}]},{"type":"error","name":"OwnableUnauthorizedAccount","inputs":[{"name":"account","type":"address","internalType":"address"}]}],"bytecode":{"object":"0x6080604052600160075534801562000015575f80fd5b50336040518060400160405280601081526020016f1059d95b9d105c995b98481059d95b9d60821b815250604051806040016040528060058152602001641051d1539560da1b815250815f90816200006e9190620001af565b5060016200007d8282620001af565b5050506001600160a01b038116620000ae57604051631e4fbdf760e01b81525f600482015260240160405180910390fd5b620000b981620000c0565b506200027b565b600680546001600160a01b038381166001600160a01b0319831681179093556040519116919082907f8be0079c531659141344cd1fd0a4f28419497f9722a3daafe3b4186f6b6457e0905f90a35050565b634e487b7160e01b5f52604160045260245ffd5b600181811c908216806200013a57607f821691505b6020821081036200015957634e487b7160e01b5f52602260045260245ffd5b50919050565b601f821115620001aa57805f5260205f20601f840160051c81016020851015620001865750805b601f840160051c820191505b81811015620001a7575f815560010162000192565b50505b505050565b81516001600160401b03811115620001cb57620001cb62000111565b620001e381620001dc845462000125565b846200015f565b602080601f83116001811462000219575f8415620002015750858301515b5f19600386901b1c1916600185901b17855562000273565b5f85815260208120601f198616915b82811015620002495788860151825594840194600190910190840162000228565b50858210156200026757878501515f19600388901b60f8161c191681555b505060018460011b0185555b505050505050565b61164e80620002895f395ff3fe608060405234801561000f575f80fd5b5060043610610132575f3560e01c806370a08231116100b4578063a22cb46511610079578063a22cb4651461027d578063b88d4fde14610290578063c87b56dd146102a3578063d0def521146102b6578063e985e9c5146102c9578063f2fde38b146102dc575f80fd5b806370a082311461023657806370a93b3614610249578063715018a61461025c5780638da5cb5b1461026457806395d89b4114610275575f80fd5b806323b872dd116100fa57806323b872dd146101c95780632de5aaf7146101dc57806342842e0e146101fd578063513856c8146102105780636352211e14610223575f80fd5b806301ffc9a71461013657806306fdde031461015e578063081812fc14610173578063095ea7b31461019e57806318160ddd146101b3575b5f80fd5b6101496101443660046110af565b6102ef565b60405190151581526020015b60405180910390f35b610166610340565b6040516101559190611117565b610186610181366004611129565b6103cf565b6040516001600160a01b039091168152602001610155565b6101b16101ac36600461115b565b6103f6565b005b6101bb610405565b604051908152602001610155565b6101b16101d7366004611183565b61041a565b6101ef6101ea366004611129565b6104a8565b6040516101559291906111bc565b6101b161020b366004611183565b6105ac565b6101ef61021e366004611129565b6105cb565b610186610231366004611129565b61066c565b6101bb6102443660046111dd565b610676565b6101b16102573660046111f6565b6106bb565b6101b161072e565b6006546001600160a01b0316610186565b610166610741565b6101b161028b366004611216565b610750565b6101b161029e366004611263565b61075b565b6101666102b1366004611129565b610773565b6101bb6102c4366004611338565b6107e4565b6101496102d73660046113b4565b6108c8565b6101b16102ea3660046111dd565b6108f5565b5f6001600160e01b031982166380ac58cd60e01b148061031f57506001600160e01b03198216635b5e139f60e01b145b8061033a57506301ffc9a760e01b6001600160e01b03198316145b92915050565b60605f805461034e906113e5565b80601f016020809104026020016040519081016040528092919081815260200182805461037a906113e5565b80156103c55780601f1061039c576101008083540402835291602001916103c5565b820191905f5260205f20905b8154815290600101906020018083116103a857829003601f168201915b5050505050905090565b5f6103d982610932565b505f828152600460205260409020546001600160a01b031661033a565b61040182823361096a565b5050565b5f60016007546104159190611431565b905090565b6001600160a01b03821661044857604051633250574960e11b81525f60048201526024015b60405180910390fd5b5f610454838333610977565b9050836001600160a01b0316816001600160a01b0316146104a2576040516364283d7b60e01b81526001600160a01b038086166004830152602482018490528216604482015260640161043f565b50505050565b60605f806104b58461066c565b6001600160a01b0316036105025760405162461bcd60e51b81526020600482015260146024820152731059d95b9d08191bd95cc81b9bdd08195e1a5cdd60621b604482015260640161043f565b5f838152600860205260409020600181015481548291908290610524906113e5565b80601f0160208091040260200160405190810160405280929190818152602001828054610550906113e5565b801561059b5780601f106105725761010080835404028352916020019161059b565b820191905f5260205f20905b81548152906001019060200180831161057e57829003601f168201915b505050505091509250925050915091565b6105c683838360405180602001604052805f81525061075b565b505050565b60086020525f90815260409020805481906105e5906113e5565b80601f0160208091040260200160405190810160405280929190818152602001828054610611906113e5565b801561065c5780601f106106335761010080835404028352916020019161065c565b820191905f5260205f20905b81548152906001019060200180831161063f57829003601f168201915b5050505050908060010154905082565b5f61033a82610932565b5f6001600160a01b0382166106a0576040516322718ad960e21b81525f600482015260240161043f565b506001600160a01b03165f9081526003602052604090205490565b6106c3610a69565b5f6106cd8361066c565b6001600160a01b03160361071a5760405162461bcd60e51b81526020600482015260146024820152731059d95b9d08191bd95cc81b9bdd08195e1a5cdd60621b604482015260640161043f565b5f9182526008602052604090912060010155565b610736610a69565b61073f5f610a96565b565b60606001805461034e906113e5565b610401338383610ae7565b61076684848461041a565b6104a23385858585610bae565b606061077e82610932565b505f61079460408051602081019091525f815290565b90505f8151116107b25760405180602001604052805f8152506107dd565b806107bc84610cd6565b6040516020016107cd929190611444565b6040516020818303038152906040525b9392505050565b5f6107ed610a69565b600780545f91826107fd83611472565b91905055905061080d8582610d66565b6040805160606020601f870181900402820181018352918101858152909182919087908790819085018382808284375f92018290525093855250506001602093840152508381526008909152604090208151819061086b90826114ce565b5060208201518160010155905050846001600160a01b0316817fa4652c347eda285ec0c39ae9b126864ddd645ea09491cf0cccc0628a8affcc6a868660016040516108b89392919061158a565b60405180910390a3949350505050565b6001600160a01b039182165f90815260056020908152604080832093909416825291909152205460ff1690565b6108fd610a69565b6001600160a01b03811661092657604051631e4fbdf760e01b81525f600482015260240161043f565b61092f81610a96565b50565b5f818152600260205260408120546001600160a01b03168061033a57604051637e27328960e01b81526004810184905260240161043f565b6105c68383836001610d7f565b5f828152600260205260408120546001600160a01b03908116908316156109a3576109a3818486610e83565b6001600160a01b038116156109dd576109be5f855f80610d7f565b6001600160a01b0381165f90815260036020526040902080545f190190555b6001600160a01b03851615610a0b576001600160a01b0385165f908152600360205260409020805460010190555b5f8481526002602052604080822080546001600160a01b0319166001600160a01b0389811691821790925591518793918516917fddf252ad1be2c89b69c2b068fc378daa952ba7f163c4a11628f55a4df523b3ef91a4949350505050565b6006546001600160a01b0316331461073f5760405163118cdaa760e01b815233600482015260240161043f565b600680546001600160a01b038381166001600160a01b0319831681179093556040519116919082907f8be0079c531659141344cd1fd0a4f28419497f9722a3daafe3b4186f6b6457e0905f90a35050565b6001600160a01b038316610b105760405163a9fbf51f60e01b81525f600482015260240161043f565b6001600160a01b038216610b4257604051630b61174360e31b81526001600160a01b038316600482015260240161043f565b6001600160a01b038381165f81815260056020908152604080832094871680845294825291829020805460ff191686151590811790915591519182527f17307eab39ab6107e8899845ad3d59bd9653f200f220920489ca2b5937696c31910160405180910390a3505050565b6001600160a01b0383163b15610ccf57604051630a85bd0160e11b81526001600160a01b0384169063150b7a0290610bf09088908890879087906004016115c1565b6020604051808303815f875af1925050508015610c2a575060408051601f3d908101601f19168201909252610c27918101906115fd565b60015b610c91573d808015610c57576040519150601f19603f3d011682016040523d82523d5f602084013e610c5c565b606091505b5080515f03610c8957604051633250574960e11b81526001600160a01b038516600482015260240161043f565b805160208201fd5b6001600160e01b03198116630a85bd0160e11b14610ccd57604051633250574960e11b81526001600160a01b038516600482015260240161043f565b505b5050505050565b60605f610ce283610ee7565b60010190505f8167ffffffffffffffff811115610d0157610d0161124f565b6040519080825280601f01601f191660200182016040528015610d2b576020820181803683370190505b5090508181016020015b5f19016f181899199a1a9b1b9c1cb0b131b232b360811b600a86061a8153600a8504945084610d3557509392505050565b610401828260405180602001604052805f815250610fbe565b8080610d9357506001600160a01b03821615155b15610e54575f610da284610932565b90506001600160a01b03831615801590610dce5750826001600160a01b0316816001600160a01b031614155b8015610de15750610ddf81846108c8565b155b15610e0a5760405163a9fbf51f60e01b81526001600160a01b038416600482015260240161043f565b8115610e525783856001600160a01b0316826001600160a01b03167f8c5be1e5ebec7d5bd14f71427d1e84f3dd0314c0f7b2291e5b200ac8c7c3b92560405160405180910390a45b505b50505f90815260046020526040902080546001600160a01b0319166001600160a01b0392909216919091179055565b610e8e838383610fd5565b6105c6576001600160a01b038316610ebc57604051637e27328960e01b81526004810182905260240161043f565b60405163177e802f60e01b81526001600160a01b03831660048201526024810182905260440161043f565b5f8072184f03e93ff9f4daa797ed6e38ed64bf6a1f0160401b8310610f255772184f03e93ff9f4daa797ed6e38ed64bf6a1f0160401b830492506040015b6d04ee2d6d415b85acef81000000008310610f51576d04ee2d6d415b85acef8100000000830492506020015b662386f26fc100008310610f6f57662386f26fc10000830492506010015b6305f5e1008310610f87576305f5e100830492506008015b6127108310610f9b57612710830492506004015b60648310610fad576064830492506002015b600a831061033a5760010192915050565b610fc88383611039565b6105c6335f858585610bae565b5f6001600160a01b038316158015906110315750826001600160a01b0316846001600160a01b0316148061100e575061100e84846108c8565b8061103157505f828152600460205260409020546001600160a01b038481169116145b949350505050565b6001600160a01b03821661106257604051633250574960e11b81525f600482015260240161043f565b5f61106e83835f610977565b90506001600160a01b038116156105c6576040516339e3563760e11b81525f600482015260240161043f565b6001600160e01b03198116811461092f575f80fd5b5f602082840312156110bf575f80fd5b81356107dd8161109a565b5f5b838110156110e45781810151838201526020016110cc565b50505f910152565b5f81518084526111038160208601602086016110ca565b601f01601f19169290920160200192915050565b602081525f6107dd60208301846110ec565b5f60208284031215611139575f80fd5b5035919050565b80356001600160a01b0381168114611156575f80fd5b919050565b5f806040838503121561116c575f80fd5b61117583611140565b946020939093013593505050565b5f805f60608486031215611195575f80fd5b61119e84611140565b92506111ac60208501611140565b9150604084013590509250925092565b604081525f6111ce60408301856110ec565b90508260208301529392505050565b5f602082840312156111ed575f80fd5b6107dd82611140565b5f8060408385031215611207575f80fd5b50508035926020909101359150565b5f8060408385031215611227575f80fd5b61123083611140565b915060208301358015158114611244575f80fd5b809150509250929050565b634e487b7160e01b5f52604160045260245ffd5b5f805f8060808587031215611276575f80fd5b61127f85611140565b935061128d60208601611140565b925060408501359150606085013567ffffffffffffffff808211156112b0575f80fd5b818701915087601f8301126112c3575f80fd5b8135818111156112d5576112d561124f565b604051601f8201601f19908116603f011681019083821181831017156112fd576112fd61124f565b816040528281528a6020848701011115611315575f80fd5b826020860160208301375f60208483010152809550505050505092959194509250565b5f805f6040848603121561134a575f80fd5b61135384611140565b9250602084013567ffffffffffffffff8082111561136f575f80fd5b818601915086601f830112611382575f80fd5b813581811115611390575f80fd5b8760208285010111156113a1575f80fd5b6020830194508093505050509250925092565b5f80604083850312156113c5575f80fd5b6113ce83611140565b91506113dc60208401611140565b90509250929050565b600181811c908216806113f957607f821691505b60208210810361141757634e487b7160e01b5f52602260045260245ffd5b50919050565b634e487b7160e01b5f52601160045260245ffd5b8181038181111561033a5761033a61141d565b5f83516114558184602088016110ca565b8351908301906114698183602088016110ca565b01949350505050565b5f600182016114835761148361141d565b5060010190565b601f8211156105c657805f5260205f20601f840160051c810160208510156114af5750805b601f840160051c820191505b81811015610ccf575f81556001016114bb565b815167ffffffffffffffff8111156114e8576114e861124f565b6114fc816114f684546113e5565b8461148a565b602080601f83116001811461152f575f84156115185750858301515b5f19600386901b1c1916600185901b178555610ccd565b5f85815260208120601f198616915b8281101561155d5788860151825594840194600190910190840161153e565b508582101561157a57878501515f19600388901b60f8161c191681555b5050505050600190811b01905550565b60408152826040820152828460608301375f606084830101525f6060601f19601f8601168301019050826020830152949350505050565b6001600160a01b03858116825284166020820152604081018390526080606082018190525f906115f3908301846110ec565b9695505050505050565b5f6020828403121561160d575f80fd5b81516107dd8161109a56fea2646970667358221220b43ab03d5a58c53a9e060b2fecf2bbeb033483a136b7855c3de6515207ad192f64736f6c63430008180033","linkReferences":{}},"methodIdentifiers":{"agents(uint256)":"513856c8","approve(address,uint256)":"095ea7b3","balanceOf(address)":"70a08231","getAgent(uint256)":"2de5aaf7","getApproved(uint256)":"081812fc","isApprovedForAll(address,address)":"e985e9c5","mint(address,string)":"d0def521","name()":"06fdde03","owner()":"8da5cb5b","ownerOf(uint256)":"6352211e","renounceOwnership()":"715018a6","safeTransferFrom(address,address,uint256)":"42842e0e","safeTransferFrom(address,address,uint256,bytes)":"b88d4fde","setApprovalForAll(address,bool)":"a22cb465","setLevel(uint256,uint256)":"70a93b36","supportsInterface(bytes4)":"01ffc9a7","symbol()":"95d89b41","tokenURI(uint256)":"c87b56dd","totalSupply()":"18160ddd","transferFrom(address,address,uint256)":"23b872dd","transferOwnership(address)":"f2fde38b"},"id":0}