{"abi":[{"type":"receive","stateMutability":"payable"},{"type":"function","name":"chainId","inputs":[],"outputs":[{"name":"","type":"uint256","internalType":"uint256"}],"stateMutability":"view"},{"type":"function","name":"execute","inputs":[{"name":"target","type":"address","internalType":"address"},{"name":"value","type":"uint256","internalType":"uint256"},{"name":"data","type":"bytes","internalType":"bytes"}],"outputs":[{"name":"","type":"bytes","internalType":"bytes"}],"stateMutability":"payable"},{"type":"function","name":"initialize","inputs":[{"name":"_chainId","type":"uint256","internalType":"uint256"},{"name":"_tokenContract","type":"address","internalType":"address"},{"name":"_tokenId","type":"uint256","internalType":"uint256"}],"outputs":[],"stateMutability":"nonpayable"},{"type":"function","name":"onERC721Received","inputs":[{"name":"","type":"address","internalType":"address"},{"name":"","type":"address","internalType":"address"},{"name":"","type":"uint256","internalType":"uint256"},{"name":"","type":"bytes","internalType":"bytes"}],"outputs":[{"name":"","type":"bytes4","internalType":"bytes4"}],"stateMutability":"pure"},{"type":"function","name":"owner","inputs":[],"outputs":[{"name":"","type":"address","internalType":"address"}],"stateMutability":"view"},{"type":"function","name":"supportsInterface","inputs":[{"name":"interfaceId","type":"bytes4","internalType":"bytes4"}],"outputs":[{"name":"","type":"bool","internalType":"bool"}],"stateMutability":"pure"},{"type":"function","name":"tokenContract","inputs":[],"outputs":[{"name":"","type":"address","internalType":"address"}],"stateMutability":"view"},{"type":"function","name":"tokenId","inputs":[],"outputs":[{"name":"","type":"uint256","internalType":"uint256"}],"stateMutability":"view"},{"type":"event","name":"Executed","inputs":[{"name":"target","type":"address","indexed":true,"internalType":"address"},{"name":"value","type":"uint256","indexed":false,"internalType":"uint256"},{"name":"data","type":"bytes","indexed":false,"internalType":"bytes"},{"name":"success","type":"bool","indexed":false,"internalType":"bool"}],"anonymous":false}],"bytecode":{"object":"0x608060405234801561000f575f80fd5b506106c88061001d5f395ff3fe60806040526004361061007c575f3560e01c80638da5cb5b1161004c5780638da5cb5b146101595780639a8a05921461016d578063b61d27f614610181578063fffb5183146101a1575f80fd5b806301ffc9a714610087578063150b7a02146100bb57806317d70f7c146100ff57806355a373d614610122575f80fd5b3661008357005b5f80fd5b348015610092575f80fd5b506100a66100a1366004610458565b6101c2565b60405190151581526020015b60405180910390f35b3480156100c6575f80fd5b506100e66100d53660046104e2565b630a85bd0160e11b95945050505050565b6040516001600160e01b031990911681526020016100b2565b34801561010a575f80fd5b5061011460025481565b6040519081526020016100b2565b34801561012d575f80fd5b50600154610141906001600160a01b031681565b6040516001600160a01b0390911681526020016100b2565b348015610164575f80fd5b506101416101f8565b348015610178575f80fd5b506101145f5481565b61019461018f366004610550565b610282565b6040516100b291906105a8565b3480156101ac575f80fd5b506101c06101bb3660046105f4565b6103d5565b005b5f6001600160e01b031982166301ffc9a760e01b14806101f257506001600160e01b03198216630a85bd0160e11b145b92915050565b6003545f9060ff1661020957505f90565b6001546002546040516331a9108f60e11b81526001600160a01b0390921691636352211e9161023e9160040190815260200190565b602060405180830381865afa158015610259573d5f803e3d5ffd5b505050506040513d601f19601f8201168201806040525081019061027d9190610629565b905090565b606061028c6101f8565b6001600160a01b0316336001600160a01b0316146102e35760405162461bcd60e51b815260206004820152600f60248201526e2737ba103a37b5b2b71037bbb732b960891b60448201526064015b60405180910390fd5b5f80866001600160a01b0316868686604051610300929190610644565b5f6040518083038185875af1925050503d805f811461033a576040519150601f19603f3d011682016040523d82523d5f602084013e61033f565b606091505b5091509150866001600160a01b03167f4232d48319210b7bc959a61fd7785051da1497df2a1400e3340f42a8a6efd541878787866040516103839493929190610653565b60405180910390a2816103cb5760405162461bcd60e51b815260206004820152601060248201526f115e1958dd5d1a5bdb8819985a5b195960821b60448201526064016102da565b9695505050505050565b60035460ff161561041e5760405162461bcd60e51b8152602060048201526013602482015272105b1c9958591e481a5b9a5d1a585b1a5e9959606a1b60448201526064016102da565b5f92909255600180546001600160a01b0319166001600160a01b03929092169190911781556002919091556003805460ff19169091179055565b5f60208284031215610468575f80fd5b81356001600160e01b03198116811461047f575f80fd5b9392505050565b6001600160a01b038116811461049a575f80fd5b50565b5f8083601f8401126104ad575f80fd5b50813567ffffffffffffffff8111156104c4575f80fd5b6020830191508360208285010111156104db575f80fd5b9250929050565b5f805f805f608086880312156104f6575f80fd5b853561050181610486565b9450602086013561051181610486565b935060408601359250606086013567ffffffffffffffff811115610533575f80fd5b61053f8882890161049d565b969995985093965092949392505050565b5f805f8060608587031215610563575f80fd5b843561056e81610486565b935060208501359250604085013567ffffffffffffffff811115610590575f80fd5b61059c8782880161049d565b95989497509550505050565b5f602080835283518060208501525f5b818110156105d4578581018301518582016040015282016105b8565b505f604082860101526040601f19601f8301168501019250505092915050565b5f805f60608486031215610606575f80fd5b83359250602084013561061881610486565b929592945050506040919091013590565b5f60208284031215610639575f80fd5b815161047f81610486565b818382375f9101908152919050565b84815260606020820152826060820152828460808301375f8184016080908101919091529115156040820152601f909201601f1916909101019291505056fea2646970667358221220c9725b8511dc773637f268b601ab4eeee59735ede1536d2889ca79d0907a3d8864736f6c63430008180033","linkReferences":{}},"methodIdentifiers":{"chainId()":"9a8a0592","execute(address,uint256,bytes)":"b61d27f6","initialize(uint256,address,uint256)":"fffb5183","onERC721Received(address,address,uint256,bytes)":"150b7a02","owner()":"8da5cb5b","supportsInterface(bytes4)":"01ffc9a7","tokenContract()":"55a373d6","tokenId()":"17d70f7c"},"id":8}