{"abi":[{"type":"constructor","inputs":[],"stateMutability":"nonpayable"},{"type":"function","name":"approve","inputs":[{"name":"to","type":"address","internalType":"address"},{"name":"tokenId","type":"uint256","internalType":"uint256"}],"outputs":[],"stateMutability":"nonpayable"},{"type":"function","name":"authorizedUpdaters","inputs":[{"name":"","type":"address","internalType":"address"}],"outputs":[{"name":"","type":"bool","internalType":"bool"}],"stateMutability":"view"},{"type":"function","name":"balanceOf","inputs":[{"name":"owner","type":"address","internalType":"address"}],"outputs":[{"name":"","type":"uint256","internalType":"uint256"}],"stateMutability":"view"},{"type":"function","name":"getApproved","inputs":[{"name":"tokenId","type":"uint256","internalType":"uint256"}],"outputs":[{"name":"","type":"address","internalType":"address"}],"stateMutability":"view"},{"type":"function","name":"getPet","inputs":[{"name":"tokenId","type":"uint256","internalType":"uint256"}],"outputs":[{"name":"name","type":"string","internalType":"string"},{"name":"mood","type":"uint8","internalType":"uint8"},{"name":"personality","type":"uint8","internalType":"uint8"}],"stateMutability":"view"},{"type":"function","name":"isApprovedForAll","inputs":[{"name":"owner","type":"address","internalType":"address"},{"name":"operator","type":"address","internalType":"address"}],"outputs":[{"name":"","type":"bool","internalType":"bool"}],"stateMutability":"view"},{"type":"function","name":"mint","inputs":[{"name":"to","type":"address","internalType":"address"},{"name":"name","type":"string","internalType":"string"},{"name":"personality","type":"uint8","internalType":"uint8"}],"outputs":[{"name":"","type":"uint256","internalType":"uint256"}],"stateMutability":"nonpayable"},{"type":"function","name":"name","inputs":[],"outputs":[{"name":"","type":"string","internalType":"string"}],"stateMutability":"view"},{"type":"function","name":"owner","inputs":[],"outputs":[{"name":"","type":"address","internalType":"address"}],"stateMutability":"view"},{"type":"function","name":"ownerOf","inputs":[{"name":"tokenId","type":"uint256","internalType":"uint256"}],"outputs":[{"name":"","type":"address","internalType":"address"}],"stateMutability":"view"},{"type":"function","name":"pets","inputs":[{"name":"","type":"uint256","internalType":"uint256"}],"outputs":[{"name":"name","type":"string","internalType":"string"},{"name":"mood","type":"uint8","internalType":"uint8"},{"name":"personality","type":"uint8","internalType":"uint8"}],"stateMutability":"view"},{"type":"function","name":"renounceOwnership","inputs":[],"outputs":[],"stateMutability":"nonpayable"},{"type":"function","name":"safeTransferFrom","inputs":[{"name":"from","type":"address","internalType":"address"},{"name":"to","type":"address","internalType":"address"},{"name":"tokenId","type":"uint256","internalType":"uint256"}],"outputs":[],"stateMutability":"nonpayable"},{"type":"function","name":"safeTransferFrom","inputs":[{"name":"from","type":"address","internalType":"address"},{"name":"to","type":"address","internalType":"address"},{"name":"tokenId","type":"uint256","internalType":"uint256"},{"name":"data","type":"bytes","internalType":"bytes"}],"outputs":[],"stateMutability":"nonpayable"},{"type":"function","name":"setApprovalForAll","inputs":[{"name":"operator","type":"address","internalType":"address"},{"name":"approved","type":"bool","internalType":"bool"}],"outputs":[],"stateMutability":"nonpayable"},{"type":"function","name":"setAuthorizedUpdater","inputs":[{"name":"updater","type":"address","internalType":"address"},{"name":"status","type":"bool","internalType":"bool"}],"outputs":[],"stateMutability":"nonpayable"},{"type":"function","name":"supportsInterface","inputs":[{"name":"interfaceId","type":"bytes4","internalType":"bytes4"}],"outputs":[{"name":"","type":"bool","internalType":"bool"}],"stateMutability":"view"},{"type":"function","name":"symbol","inputs":[],"outputs":[{"name":"","type":"string","internalType":"string"}],"stateMutability":"view"},{"type":"function","name":"tokenURI","inputs":[{"name":"tokenId","type":"uint256","internalType":"uint256"}],"outputs":[{"name":"","type":"string","internalType":"string"}],"stateMutability":"view"},{"type":"function","name":"totalSupply","inputs":[],"outputs":[{"name":"","type":"uint256","internalType":"uint256"}],"stateMutability":"view"},{"type":"function","name":"transferFrom","inputs":[{"name":"from","type":"address","internalType":"address"},{"name":"to","type":"address","internalType":"address"},{"name":"tokenId","type":"uint256","internalType":"uint256"}],"outputs":[],"stateMutability":"nonpayable"},{"type":"function","name":"transferOwnership","inputs":[{"name":"newOwner","type":"address","internalType":"address"}],"outputs":[],"stateMutability":"nonpayable"},{"type":"function","name":"updateMood","inputs":[{"name":"tokenId","type":"uint256","internalType":"uint256"},{"name":"newMood","type":"uint8","internalType":"uint8"}],"outputs":[],"stateMutability":"nonpayable"},{"type":"event","name":"Approval","inputs":[{"name":"owner","type":"address","indexed":true,"internalType":"address"},{"name":"approved","type":"address","indexed":true,"internalType":"address"},{"name":"tokenId","type":"uint256","indexed":true,"internalType":"uint256"}],"anonymous":false},{"type":"event","name":"ApprovalForAll","inputs":[{"name":"owner","type":"address","indexed":true,"internalType":"address"},{"name":"operator","type":"address","indexed":true,"internalType":"address"},{"name":"approved","type":"bool","indexed":false,"internalType":"bool"}],"anonymous":false},{"type":"event","name":"MoodUpdated","inputs":[{"name":"tokenId","type":"uint256","indexed":true,"internalType":"uint256"},{"name":"newMood","type":"uint8","indexed":false,"internalType":"uint8"}],"anonymous":false},{"type":"event","name":"OwnershipTransferred","inputs":[{"name":"previousOwner","type":"address","indexed":true,"internalType":"address"},{"name":"newOwner","type":"address","indexed":true,"internalType":"address"}],"anonymous":false},{"type":"event","name":"PetMinted","inputs":[{"name":"tokenId","type":"uint256","indexed":true,"internalType":"uint256"},{"name":"to","type":"address","indexed":true,"internalType":"address"},{"name":"name","type":"string","indexed":false,"internalType":"string"}],"anonymous":false},{"type":"event","name":"Transfer","inputs":[{"name":"from","type":"address","indexed":true,"internalType":"address"},{"name":"to","type":"address","indexed":true,"internalType":"address"},{"name":"tokenId","type":"uint256","indexed":true,"internalType":"uint256"}],"anonymous":false},{"type":"event","name":"UpdaterAuthorized","inputs":[{"name":"updater","type":"address","indexed":true,"internalType":"address"},{"name":"status","type":"bool","indexed":false,"internalType":"bool"}],"anonymous":false},{"type":"error","name":"ERC721IncorrectOwner","inputs":[{"name":"sender","type":"address","internalType":"address"},{"name":"tokenId","type":"uint256","internalType":"uint256"},{"name":"owner","type":"address","internalType":"address"}]},{"type":"error","name":"ERC721InsufficientApproval","inputs":[{"name":"operator","type":"address","internalType":"address"},{"name":"tokenId","type":"uint256","internalType":"uint256"}]},{"type":"error","name":"ERC721InvalidApprover","inputs":[{"name":"approver","type":"address","internalType":"address"}]},{"type":"error","name":"ERC721InvalidOperator","inputs":[{"name":"operator","type":"address","internalType":"address"}]},{"type":"error","name":"ERC721InvalidOwner","inputs":[{"name":"owner","type":"address","internalType":"address"}]},{"type":"error","name":"ERC721InvalidReceiver","inputs":[{"name":"receiver","type":"address","internalType":"address"}]},{"type":"error","name":"ERC721InvalidSender","inputs":[{"name":"sender","type":"address","internalType":"address"}]},{"type":"error","name":"ERC721NonexistentToken","inputs":[{"name":"tokenId","type":"uint256","internalType":"uint256"}]},{"type":"error","name":"OwnableInvalidOwner","inputs":[{"name":"owner","type":"address","internalType":"address"}]},{"type":"error","name":"OwnableUnauthorizedAccount","inputs":[{"name":"account","type":"address","internalType":"address"}]}],"bytecode":{"object":"0x6080604052600160075534801562000015575f80fd5b50336040518060400160405280600e81526020016d1059d95b9d105c995b984814195d60921b8152506040518060400160405280600381526020016214115560ea1b815250815f90816200006a9190620001ab565b506001620000798282620001ab565b5050506001600160a01b038116620000aa57604051631e4fbdf760e01b81525f600482015260240160405180910390fd5b620000b581620000bc565b5062000277565b600680546001600160a01b038381166001600160a01b0319831681179093556040519116919082907f8be0079c531659141344cd1fd0a4f28419497f9722a3daafe3b4186f6b6457e0905f90a35050565b634e487b7160e01b5f52604160045260245ffd5b600181811c908216806200013657607f821691505b6020821081036200015557634e487b7160e01b5f52602260045260245ffd5b50919050565b601f821115620001a657805f5260205f20601f840160051c81016020851015620001825750805b601f840160051c820191505b81811015620001a3575f81556001016200018e565b50505b505050565b81516001600160401b03811115620001c757620001c76200010d565b620001df81620001d8845462000121565b846200015b565b602080601f83116001811462000215575f8415620001fd5750858301515b5f19600386901b1c1916600185901b1785556200026f565b5f85815260208120601f198616915b82811015620002455788860151825594840194600190910190840162000224565b50858210156200026357878501515f19600388901b60f8161c191681555b505060018460011b0185555b505050505050565b61181580620002855f395ff3fe608060405234801561000f575f80fd5b5060043610610148575f3560e01c8063715018a6116100bf578063a743e3f311610079578063a743e3f3146102c9578063b88d4fde146102dc578063c87b56dd146102ef578063cfb869bf14610302578063e985e9c514610315578063f2fde38b14610328575f80fd5b8063715018a6146102605780638da5cb5b146102685780638ff29cfe1461027957806395d89b411461029b57806399fc65d4146102a3578063a22cb465146102b6575f80fd5b806323b872dd1161011057806323b872dd146101df57806342842e0e146101f257806359d55194146102055780636352211e146102275780636a4b88831461023a57806370a082311461024d575f80fd5b806301ffc9a71461014c57806306fdde0314610174578063081812fc14610189578063095ea7b3146101b457806318160ddd146101c9575b5f80fd5b61015f61015a366004611252565b61033b565b60405190151581526020015b60405180910390f35b61017c61038c565b60405161016b91906112ba565b61019c6101973660046112cc565b61041b565b6040516001600160a01b03909116815260200161016b565b6101c76101c23660046112fe565b610442565b005b6101d1610451565b60405190815260200161016b565b6101c76101ed366004611326565b610466565b6101c7610200366004611326565b6104f4565b6102186102133660046112cc565b610513565b60405161016b9392919061135f565b61019c6102353660046112cc565b610627565b6101d161024836600461139b565b610631565b6101d161025b366004611428565b610741565b6101c7610786565b6006546001600160a01b031661019c565b61015f610287366004611428565b60096020525f908152604090205460ff1681565b61017c610799565b6101c76102b1366004611441565b6107a8565b6101c76102c4366004611441565b61080f565b6101c76102d736600461147a565b61081a565b6101c76102ea3660046114b8565b610935565b61017c6102fd3660046112cc565b61094d565b6102186103103660046112cc565b6109be565b61015f61032336600461158d565b610a6b565b6101c7610336366004611428565b610a98565b5f6001600160e01b031982166380ac58cd60e01b148061036b57506001600160e01b03198216635b5e139f60e01b145b8061038657506301ffc9a760e01b6001600160e01b03198316145b92915050565b60605f805461039a906115b5565b80601f01602080910402602001604051908101604052809291908181526020018280546103c6906115b5565b80156104115780601f106103e857610100808354040283529160200191610411565b820191905f5260205f20905b8154815290600101906020018083116103f457829003601f168201915b5050505050905090565b5f61042582610ad5565b505f828152600460205260409020546001600160a01b0316610386565b61044d828233610b0d565b5050565b5f60016007546104619190611601565b905090565b6001600160a01b03821661049457604051633250574960e11b81525f60048201526024015b60405180910390fd5b5f6104a0838333610b1a565b9050836001600160a01b0316816001600160a01b0316146104ee576040516364283d7b60e01b81526001600160a01b038086166004830152602482018490528216604482015260640161048b565b50505050565b61050e83838360405180602001604052805f815250610935565b505050565b60605f808061052185610627565b6001600160a01b03160361056c5760405162461bcd60e51b815260206004820152601260248201527114195d08191bd95cc81b9bdd08195e1a5cdd60721b604482015260640161048b565b5f84815260086020526040902060018101548154829160ff808216926101009092041690839061059b906115b5565b80601f01602080910402602001604051908101604052809291908181526020018280546105c7906115b5565b80156106125780601f106105e957610100808354040283529160200191610612565b820191905f5260205f20905b8154815290600101906020018083116105f557829003601f168201915b50505050509250935093509350509193909250565b5f61038682610ad5565b5f61063a610c0c565b600780545f918261064a83611614565b91905055905061065a8682610c39565b604051806060016040528086868080601f0160208091040260200160405190810160405280939291908181526020018383808284375f920182905250938552505050602080830182905260ff87166040938401528482526008905220815181906106c49082611670565b5060208201516001909101805460409384015160ff9081166101000261ffff19909216931692909217919091179055516001600160a01b0387169082907f4639c237376208a6488772ae52ae9263188bd41b4cd0362b4b921b6a02f45c1990610730908990899061172c565b60405180910390a395945050505050565b5f6001600160a01b03821661076b576040516322718ad960e21b81525f600482015260240161048b565b506001600160a01b03165f9081526003602052604090205490565b61078e610c0c565b6107975f610c52565b565b60606001805461039a906115b5565b6107b0610c0c565b6001600160a01b0382165f81815260096020908152604091829020805460ff191685151590811790915591519182527f5c001b1d70af3e0a09eed53bc0588d57fec6d23196319ba29c6313eb3321273c91015b60405180910390a25050565b61044d338383610ca3565b6006546001600160a01b03163314806108415750335f9081526009602052604090205460ff165b61088d5760405162461bcd60e51b815260206004820152601d60248201527f4e6f7420617574686f72697a656420746f20757064617465206d6f6f64000000604482015260640161048b565b5f61089783610627565b6001600160a01b0316036108e25760405162461bcd60e51b815260206004820152601260248201527114195d08191bd95cc81b9bdd08195e1a5cdd60721b604482015260640161048b565b5f82815260086020908152604091829020600101805460ff191660ff8516908117909155915191825283917f463c8d64c8e30629de6555db490c0f5eab2dbef4b56da86972880aa71892992a9101610803565b610940848484610466565b6104ee3385858585610d6a565b606061095882610ad5565b505f61096e60408051602081019091525f815290565b90505f81511161098c5760405180602001604052805f8152506109b7565b8061099684610e92565b6040516020016109a792919061175a565b6040516020818303038152906040525b9392505050565b60086020525f90815260409020805481906109d8906115b5565b80601f0160208091040260200160405190810160405280929190818152602001828054610a04906115b5565b8015610a4f5780601f10610a2657610100808354040283529160200191610a4f565b820191905f5260205f20905b815481529060010190602001808311610a3257829003601f168201915b5050506001909301549192505060ff8082169161010090041683565b6001600160a01b039182165f90815260056020908152604080832093909416825291909152205460ff1690565b610aa0610c0c565b6001600160a01b038116610ac957604051631e4fbdf760e01b81525f600482015260240161048b565b610ad281610c52565b50565b5f818152600260205260408120546001600160a01b03168061038657604051637e27328960e01b81526004810184905260240161048b565b61050e8383836001610f22565b5f828152600260205260408120546001600160a01b0390811690831615610b4657610b46818486611026565b6001600160a01b03811615610b8057610b615f855f80610f22565b6001600160a01b0381165f90815260036020526040902080545f190190555b6001600160a01b03851615610bae576001600160a01b0385165f908152600360205260409020805460010190555b5f8481526002602052604080822080546001600160a01b0319166001600160a01b0389811691821790925591518793918516917fddf252ad1be2c89b69c2b068fc378daa952ba7f163c4a11628f55a4df523b3ef91a4949350505050565b6006546001600160a01b031633146107975760405163118cdaa760e01b815233600482015260240161048b565b61044d828260405180602001604052805f81525061108a565b600680546001600160a01b038381166001600160a01b0319831681179093556040519116919082907f8be0079c531659141344cd1fd0a4f28419497f9722a3daafe3b4186f6b6457e0905f90a35050565b6001600160a01b038316610ccc5760405163a9fbf51f60e01b81525f600482015260240161048b565b6001600160a01b038216610cfe57604051630b61174360e31b81526001600160a01b038316600482015260240161048b565b6001600160a01b038381165f81815260056020908152604080832094871680845294825291829020805460ff191686151590811790915591519182527f17307eab39ab6107e8899845ad3d59bd9653f200f220920489ca2b5937696c31910160405180910390a3505050565b6001600160a01b0383163b15610e8b57604051630a85bd0160e11b81526001600160a01b0384169063150b7a0290610dac908890889087908790600401611788565b6020604051808303815f875af1925050508015610de6575060408051601f3d908101601f19168201909252610de3918101906117c4565b60015b610e4d573d808015610e13576040519150601f19603f3d011682016040523d82523d5f602084013e610e18565b606091505b5080515f03610e4557604051633250574960e11b81526001600160a01b038516600482015260240161048b565b805160208201fd5b6001600160e01b03198116630a85bd0160e11b14610e8957604051633250574960e11b81526001600160a01b038516600482015260240161048b565b505b5050505050565b60605f610e9e836110a1565b60010190505f8167ffffffffffffffff811115610ebd57610ebd6114a4565b6040519080825280601f01601f191660200182016040528015610ee7576020820181803683370190505b5090508181016020015b5f19016f181899199a1a9b1b9c1cb0b131b232b360811b600a86061a8153600a8504945084610ef157509392505050565b8080610f3657506001600160a01b03821615155b15610ff7575f610f4584610ad5565b90506001600160a01b03831615801590610f715750826001600160a01b0316816001600160a01b031614155b8015610f845750610f828184610a6b565b155b15610fad5760405163a9fbf51f60e01b81526001600160a01b038416600482015260240161048b565b8115610ff55783856001600160a01b0316826001600160a01b03167f8c5be1e5ebec7d5bd14f71427d1e84f3dd0314c0f7b2291e5b200ac8c7c3b92560405160405180910390a45b505b50505f90815260046020526040902080546001600160a01b0319166001600160a01b0392909216919091179055565b611031838383611178565b61050e576001600160a01b03831661105f57604051637e27328960e01b81526004810182905260240161048b565b60405163177e802f60e01b81526001600160a01b03831660048201526024810182905260440161048b565b61109483836111dc565b61050e335f858585610d6a565b5f8072184f03e93ff9f4daa797ed6e38ed64bf6a1f0160401b83106110df5772184f03e93ff9f4daa797ed6e38ed64bf6a1f0160401b830492506040015b6d04ee2d6d415b85acef8100000000831061110b576d04ee2d6d415b85acef8100000000830492506020015b662386f26fc10000831061112957662386f26fc10000830492506010015b6305f5e1008310611141576305f5e100830492506008015b612710831061115557612710830492506004015b60648310611167576064830492506002015b600a83106103865760010192915050565b5f6001600160a01b038316158015906111d45750826001600160a01b0316846001600160a01b031614806111b157506111b18484610a6b565b806111d457505f828152600460205260409020546001600160a01b038481169116145b949350505050565b6001600160a01b03821661120557604051633250574960e11b81525f600482015260240161048b565b5f61121183835f610b1a565b90506001600160a01b0381161561050e576040516339e3563760e11b81525f600482015260240161048b565b6001600160e01b031981168114610ad2575f80fd5b5f60208284031215611262575f80fd5b81356109b78161123d565b5f5b8381101561128757818101518382015260200161126f565b50505f910152565b5f81518084526112a681602086016020860161126d565b601f01601f19169290920160200192915050565b602081525f6109b7602083018461128f565b5f602082840312156112dc575f80fd5b5035919050565b80356001600160a01b03811681146112f9575f80fd5b919050565b5f806040838503121561130f575f80fd5b611318836112e3565b946020939093013593505050565b5f805f60608486031215611338575f80fd5b611341846112e3565b925061134f602085016112e3565b9150604084013590509250925092565b606081525f611371606083018661128f565b60ff94851660208401529290931660409091015292915050565b803560ff811681146112f9575f80fd5b5f805f80606085870312156113ae575f80fd5b6113b7856112e3565b9350602085013567ffffffffffffffff808211156113d3575f80fd5b818701915087601f8301126113e6575f80fd5b8135818111156113f4575f80fd5b886020828501011115611405575f80fd5b60208301955080945050505061141d6040860161138b565b905092959194509250565b5f60208284031215611438575f80fd5b6109b7826112e3565b5f8060408385031215611452575f80fd5b61145b836112e3565b91506020830135801515811461146f575f80fd5b809150509250929050565b5f806040838503121561148b575f80fd5b8235915061149b6020840161138b565b90509250929050565b634e487b7160e01b5f52604160045260245ffd5b5f805f80608085870312156114cb575f80fd5b6114d4856112e3565b93506114e2602086016112e3565b925060408501359150606085013567ffffffffffffffff80821115611505575f80fd5b818701915087601f830112611518575f80fd5b81358181111561152a5761152a6114a4565b604051601f8201601f19908116603f01168101908382118183101715611552576115526114a4565b816040528281528a602084870101111561156a575f80fd5b826020860160208301375f60208483010152809550505050505092959194509250565b5f806040838503121561159e575f80fd5b6115a7836112e3565b915061149b602084016112e3565b600181811c908216806115c957607f821691505b6020821081036115e757634e487b7160e01b5f52602260045260245ffd5b50919050565b634e487b7160e01b5f52601160045260245ffd5b81810381811115610386576103866115ed565b5f60018201611625576116256115ed565b5060010190565b601f82111561050e57805f5260205f20601f840160051c810160208510156116515750805b601f840160051c820191505b81811015610e8b575f815560010161165d565b815167ffffffffffffffff81111561168a5761168a6114a4565b61169e8161169884546115b5565b8461162c565b602080601f8311600181146116d1575f84156116ba5750858301515b5f19600386901b1c1916600185901b178555610e89565b5f85815260208120601f198616915b828110156116ff578886015182559484019460019091019084016116e0565b508582101561171c57878501515f19600388901b60f8161c191681555b5050505050600190811b01905550565b60208152816020820152818360408301375f818301604090810191909152601f909201601f19160101919050565b5f835161176b81846020880161126d565b83519083019061177f81836020880161126d565b01949350505050565b6001600160a01b03858116825284166020820152604081018390526080606082018190525f906117ba9083018461128f565b9695505050505050565b5f602082840312156117d4575f80fd5b81516109b78161123d56fea264697066735822122047f3677a6eb9f1c6cd67ef60e4aeed2d09a25017d1fd5b00199a5240c8a43cc664736f6c63430008180033","linkReferences":{}},"methodIdentifiers":{"approve(address,uint256)":"095ea7b3","authorizedUpdaters(address)":"8ff29cfe","balanceOf(address)":"70a08231","getApproved(uint256)":"081812fc","getPet(uint256)":"59d55194","isApprovedForAll(address,address)":"e985e9c5","mint(address,string,uint8)":"6a4b8883","name()":"06fdde03","owner()":"8da5cb5b","ownerOf(uint256)":"6352211e","pets(uint256)":"cfb869bf","renounceOwnership()":"715018a6","safeTransferFrom(address,address,uint256)":"42842e0e","safeTransferFrom(address,address,uint256,bytes)":"b88d4fde","setApprovalForAll(address,bool)":"a22cb465","setAuthorizedUpdater(address,bool)":"99fc65d4","supportsInterface(bytes4)":"01ffc9a7","symbol()":"95d89b41","tokenURI(uint256)":"c87b56dd","totalSupply()":"18160ddd","transferFrom(address,address,uint256)":"23b872dd","transferOwnership(address)":"f2fde38b","updateMood(uint256,uint8)":"a743e3f3"},"id":5}