{"abi":[{"type":"constructor","inputs":[],"stateMutability":"nonpayable"},{"type":"function","name":"authorizedGame","inputs":[],"outputs":[{"name":"","type":"address","internalType":"address"}],"stateMutability":"view"},{"type":"function","name":"getReputation","inputs":[{"name":"tokenId","type":"uint256","internalType":"uint256"}],"outputs":[{"name":"wins","type":"uint256","internalType":"uint256"},{"name":"losses","type":"uint256","internalType":"uint256"},{"name":"score","type":"uint256","internalType":"uint256"}],"stateMutability":"view"},{"type":"function","name":"initReputation","inputs":[{"name":"tokenId","type":"uint256","internalType":"uint256"}],"outputs":[],"stateMutability":"nonpayable"},{"type":"function","name":"owner","inputs":[],"outputs":[{"name":"","type":"address","internalType":"address"}],"stateMutability":"view"},{"type":"function","name":"recordLoss","inputs":[{"name":"tokenId","type":"uint256","internalType":"uint256"}],"outputs":[],"stateMutability":"nonpayable"},{"type":"function","name":"recordWin","inputs":[{"name":"tokenId","type":"uint256","internalType":"uint256"}],"outputs":[],"stateMutability":"nonpayable"},{"type":"function","name":"renounceOwnership","inputs":[],"outputs":[],"stateMutability":"nonpayable"},{"type":"function","name":"reputations","inputs":[{"name":"","type":"uint256","internalType":"uint256"}],"outputs":[{"name":"wins","type":"uint256","internalType":"uint256"},{"name":"losses","type":"uint256","internalType":"uint256"},{"name":"score","type":"uint256","internalType":"uint256"},{"name":"exists","type":"bool","internalType":"bool"}],"stateMutability":"view"},{"type":"function","name":"setAuthorizedGame","inputs":[{"name":"game","type":"address","internalType":"address"}],"outputs":[],"stateMutability":"nonpayable"},{"type":"function","name":"transferOwnership","inputs":[{"name":"newOwner","type":"address","internalType":"address"}],"outputs":[],"stateMutability":"nonpayable"},{"type":"event","name":"AuthorizedGameSet","inputs":[{"name":"game","type":"address","indexed":true,"internalType":"address"}],"anonymous":false},{"type":"event","name":"OwnershipTransferred","inputs":[{"name":"previousOwner","type":"address","indexed":true,"internalType":"address"},{"name":"newOwner","type":"address","indexed":true,"internalType":"address"}],"anonymous":false},{"type":"event","name":"ReputationInitialized","inputs":[{"name":"tokenId","type":"uint256","indexed":true,"internalType":"uint256"}],"anonymous":false},{"type":"event","name":"ReputationUpdated","inputs":[{"name":"tokenId","type":"uint256","indexed":true,"internalType":"uint256"},{"name":"wins","type":"uint256","indexed":false,"internalType":"uint256"},{"name":"losses","type":"uint256","indexed":false,"internalType":"uint256"},{"name":"score","type":"uint256","indexed":false,"internalType":"uint256"}],"anonymous":false},{"type":"error","name":"OwnableInvalidOwner","inputs":[{"name":"owner","type":"address","internalType":"address"}]},{"type":"error","name":"OwnableUnauthorizedAccount","inputs":[{"name":"account","type":"address","internalType":"address"}]}],"bytecode":{"object":"0x608060405234801561000f575f80fd5b50338061003557604051631e4fbdf760e01b81525f600482015260240160405180910390fd5b61003e81610044565b50610093565b5f80546001600160a01b038381166001600160a01b0319831681178455604051919092169283917f8be0079c531659141344cd1fd0a4f28419497f9722a3daafe3b4186f6b6457e09190a35050565b6107dd806100a05f395ff3fe608060405234801561000f575f80fd5b506004361061009b575f3560e01c806389370d8b1161006357806389370d8b146101415780638da5cb5b1461016f5780639e6611a514610193578063c50db87c146101a6578063f2fde38b146101b9575f80fd5b80631eb524b41461009f5780632bc71cd9146100b45780636022743e146100c7578063715018a6146100da57806372fa9b85146100e2575b5f80fd5b6100b26100ad3660046106ba565b6101cc565b005b6100b26100c23660046106e7565b61021d565b6100b26100d53660046106e7565b610340565b6100b2610487565b61011a6100f03660046106e7565b600160208190525f9182526040909120805491810154600282015460039092015490919060ff1684565b60408051948552602085019390935291830152151560608201526080015b60405180910390f35b61015461014f3660046106e7565b61049a565b60408051938452602084019290925290820152606001610138565b5f546001600160a01b03165b6040516001600160a01b039091168152602001610138565b6100b26101a13660046106e7565b6104f4565b60025461017b906001600160a01b031681565b6100b26101c73660046106ba565b610602565b6101d461063f565b600280546001600160a01b0319166001600160a01b0383169081179091556040517f3b83c4bd151eaa24f6da33c69e8670e6371ed555bcaf6d7a2fe533b03ed1cb9e905f90a250565b5f546001600160a01b031633148061023f57506002546001600160a01b031633145b6102645760405162461bcd60e51b815260040161025b906106fe565b60405180910390fd5b5f8181526001602052604090206003015460ff16156102bb5760405162461bcd60e51b8152602060048201526013602482015272105b1c9958591e481a5b9a5d1a585b1a5e9959606a1b604482015260640161025b565b604080516080810182525f80825260208083018281526103e88486019081526001606086018181528886529381905286852095518655915191850191909155516002840155516003909201805460ff191692151592909217909155905182917f42598236bbe4e4a30224435c009b25ce13c94d5507b5a7fd1cf549780aebde3b91a250565b5f546001600160a01b031633148061036257506002546001600160a01b031633145b61037e5760405162461bcd60e51b815260040161025b906106fe565b5f8181526001602052604090206003015460ff166103ae5760405162461bcd60e51b815260040161025b90610726565b5f8181526001602081905260408220018054916103ca83610763565b90915550505f81815260016020526040812060020154600f106103fd575f82815260016020526040902060020154610400565b600f5b90508060015f8481526020019081526020015f206002015f828254610425919061077b565b90915550505f8281526001602081815260409283902080549281015460029091015484519384529183015281830152905183917faf5692cc9b8ad144229fa0e32a83390bd644dbc02cc27ee00a357da85b2d4759919081900360600190a25050565b61048f61063f565b6104985f61066b565b565b5f818152600160205260408120600301548190819060ff166104ce5760405162461bcd60e51b815260040161025b90610726565b5050505f8181526001602081905260409091208054918101546002909101549193909250565b5f546001600160a01b031633148061051657506002546001600160a01b031633145b6105325760405162461bcd60e51b815260040161025b906106fe565b5f8181526001602052604090206003015460ff166105625760405162461bcd60e51b815260040161025b90610726565b5f81815260016020526040812080549161057b83610763565b90915550505f8181526001602052604081206002018054601992906105a1908490610794565b90915550505f8181526001602081815260409283902080549281015460029091015484519384529183015281830152905182917faf5692cc9b8ad144229fa0e32a83390bd644dbc02cc27ee00a357da85b2d4759919081900360600190a250565b61060a61063f565b6001600160a01b03811661063357604051631e4fbdf760e01b81525f600482015260240161025b565b61063c8161066b565b50565b5f546001600160a01b031633146104985760405163118cdaa760e01b815233600482015260240161025b565b5f80546001600160a01b038381166001600160a01b0319831681178455604051919092169283917f8be0079c531659141344cd1fd0a4f28419497f9722a3daafe3b4186f6b6457e09190a35050565b5f602082840312156106ca575f80fd5b81356001600160a01b03811681146106e0575f80fd5b9392505050565b5f602082840312156106f7575f80fd5b5035919050565b6020808252600e908201526d139bdd08185d5d1a1bdc9a5e995960921b604082015260600190565b6020808252600f908201526e139bdd081a5b9a5d1a585b1a5e9959608a1b604082015260600190565b634e487b7160e01b5f52601160045260245ffd5b5f600182016107745761077461074f565b5060010190565b8181038181111561078e5761078e61074f565b92915050565b8082018082111561078e5761078e61074f56fea26469706673582212204c61160b8d6ec7a5e1eb61df78150beb7e3d3a6a2d2e8c46c286a70e5296ab2664736f6c63430008180033","linkReferences":{}},"methodIdentifiers":{"authorizedGame()":"c50db87c","getReputation(uint256)":"89370d8b","initReputation(uint256)":"2bc71cd9","owner()":"8da5cb5b","recordLoss(uint256)":"6022743e","recordWin(uint256)":"9e6611a5","renounceOwnership()":"715018a6","reputations(uint256)":"72fa9b85","setAuthorizedGame(address)":"1eb524b4","transferOwnership(address)":"f2fde38b"},"id":6}