{"abi":[{"type":"constructor","inputs":[],"stateMutability":"nonpayable"},{"type":"function","name":"getIdentity","inputs":[{"name":"tokenId","type":"uint256","internalType":"uint256"}],"outputs":[{"name":"name","type":"string","internalType":"string"},{"name":"metadataURI","type":"string","internalType":"string"}],"stateMutability":"view"},{"type":"function","name":"identities","inputs":[{"name":"","type":"uint256","internalType":"uint256"}],"outputs":[{"name":"name","type":"string","internalType":"string"},{"name":"metadataURI","type":"string","internalType":"string"},{"name":"exists","type":"bool","internalType":"bool"}],"stateMutability":"view"},{"type":"function","name":"owner","inputs":[],"outputs":[{"name":"","type":"address","internalType":"address"}],"stateMutability":"view"},{"type":"function","name":"registerIdentity","inputs":[{"name":"tokenId","type":"uint256","internalType":"uint256"},{"name":"name","type":"string","internalType":"string"},{"name":"metadataURI","type":"string","internalType":"string"}],"outputs":[],"stateMutability":"nonpayable"},{"type":"function","name":"renounceOwnership","inputs":[],"outputs":[],"stateMutability":"nonpayable"},{"type":"function","name":"transferOwnership","inputs":[{"name":"newOwner","type":"address","internalType":"address"}],"outputs":[],"stateMutability":"nonpayable"},{"type":"function","name":"updateIdentity","inputs":[{"name":"tokenId","type":"uint256","internalType":"uint256"},{"name":"name","type":"string","internalType":"string"},{"name":"metadataURI","type":"string","internalType":"string"}],"outputs":[],"stateMutability":"nonpayable"},{"type":"event","name":"IdentityRegistered","inputs":[{"name":"tokenId","type":"uint256","indexed":true,"internalType":"uint256"},{"name":"name","type":"string","indexed":false,"internalType":"string"},{"name":"metadataURI","type":"string","indexed":false,"internalType":"string"}],"anonymous":false},{"type":"event","name":"IdentityUpdated","inputs":[{"name":"tokenId","type":"uint256","indexed":true,"internalType":"uint256"},{"name":"name","type":"string","indexed":false,"internalType":"string"},{"name":"metadataURI","type":"string","indexed":false,"internalType":"string"}],"anonymous":false},{"type":"event","name":"OwnershipTransferred","inputs":[{"name":"previousOwner","type":"address","indexed":true,"internalType":"address"},{"name":"newOwner","type":"address","indexed":true,"internalType":"address"}],"anonymous":false},{"type":"error","name":"OwnableInvalidOwner","inputs":[{"name":"owner","type":"address","internalType":"address"}]},{"type":"error","name":"OwnableUnauthorizedAccount","inputs":[{"name":"account","type":"address","internalType":"address"}]}],"bytecode":{"object":"0x608060405234801561000f575f80fd5b50338061003557604051631e4fbdf760e01b81525f600482015260240160405180910390fd5b61003e81610044565b50610093565b5f80546001600160a01b038381166001600160a01b0319831681178455604051919092169283917f8be0079c531659141344cd1fd0a4f28419497f9722a3daafe3b4186f6b6457e09190a35050565b610b4f806100a05f395ff3fe608060405234801561000f575f80fd5b506004361061007a575f3560e01c80638da5cb5b116100585780638da5cb5b146100c5578063af98283c146100df578063eaaf77e6146100f2578063f2fde38b14610114575f80fd5b806321929e5e1461007e578063715018a61461009357806385e3f0581461009b575b5f80fd5b61009161008c36600461074f565b610127565b005b6100916102ab565b6100ae6100a93660046107c3565b6102be565b6040516100bc92919061081d565b60405180910390f35b5f546040516001600160a01b0390911681526020016100bc565b6100916100ed36600461074f565b610454565b6101056101003660046107c3565b610522565b6040516100bc9392919061084a565b610091610122366004610881565b610652565b61012f61068f565b5f8581526001602052604090206002015460ff16156101955760405162461bcd60e51b815260206004820152601b60248201527f4964656e7469747920616c72656164792072656769737465726564000000000060448201526064015b60405180910390fd5b604051806060016040528085858080601f0160208091040260200160405190810160405280939291908181526020018383808284375f92019190915250505090825250604080516020601f8601819004810282018101909252848152918101919085908590819084018382808284375f92018290525093855250506001602093840181905289835290925260409020825190915081906102359082610946565b506020820151600182019061024a9082610946565b50604091820151600291909101805460ff19169115159190911790555185907f8ef37fd6ca236608119b9c2d1b5b261e8c11beffc328a40c6f95802355a9017c9061029c908790879087908790610a2e565b60405180910390a25050505050565b6102b361068f565b6102bc5f6106bb565b565b5f81815260016020526040902060020154606090819060ff1661031d5760405162461bcd60e51b81526020600482015260176024820152761259195b9d1a5d1e481b9bdd081c9959da5cdd195c9959604a1b604482015260640161018c565b5f838152600160208190526040909120805490918291908201908290610342906108c2565b80601f016020809104026020016040519081016040528092919081815260200182805461036e906108c2565b80156103b95780601f10610390576101008083540402835291602001916103b9565b820191905f5260205f20905b81548152906001019060200180831161039c57829003601f168201915b505050505091508080546103cc906108c2565b80601f01602080910402602001604051908101604052809291908181526020018280546103f8906108c2565b80156104435780601f1061041a57610100808354040283529160200191610443565b820191905f5260205f20905b81548152906001019060200180831161042657829003601f168201915b505050505090509250925050915091565b61045c61068f565b5f8581526001602052604090206002015460ff166104b65760405162461bcd60e51b81526020600482015260176024820152761259195b9d1a5d1e481b9bdd081c9959da5cdd195c9959604a1b604482015260640161018c565b5f8581526001602052604090206104ce848683610a5f565b505f858152600160208190526040909120016104eb828483610a5f565b50847fc6fb812e901924617d40a0312f581b9797f3fdce20f2f457ddad5ed0903d0a318585858560405161029c9493929190610a2e565b60016020525f908152604090208054819061053c906108c2565b80601f0160208091040260200160405190810160405280929190818152602001828054610568906108c2565b80156105b35780601f1061058a576101008083540402835291602001916105b3565b820191905f5260205f20905b81548152906001019060200180831161059657829003601f168201915b5050505050908060010180546105c8906108c2565b80601f01602080910402602001604051908101604052809291908181526020018280546105f4906108c2565b801561063f5780601f106106165761010080835404028352916020019161063f565b820191905f5260205f20905b81548152906001019060200180831161062257829003601f168201915b5050506002909301549192505060ff1683565b61065a61068f565b6001600160a01b03811661068357604051631e4fbdf760e01b81525f600482015260240161018c565b61068c816106bb565b50565b5f546001600160a01b031633146102bc5760405163118cdaa760e01b815233600482015260240161018c565b5f80546001600160a01b038381166001600160a01b0319831681178455604051919092169283917f8be0079c531659141344cd1fd0a4f28419497f9722a3daafe3b4186f6b6457e09190a35050565b5f8083601f84011261071a575f80fd5b50813567ffffffffffffffff811115610731575f80fd5b602083019150836020828501011115610748575f80fd5b9250929050565b5f805f805f60608688031215610763575f80fd5b85359450602086013567ffffffffffffffff80821115610781575f80fd5b61078d89838a0161070a565b909650945060408801359150808211156107a5575f80fd5b506107b28882890161070a565b969995985093965092949392505050565b5f602082840312156107d3575f80fd5b5035919050565b5f81518084525f5b818110156107fe576020818501810151868301820152016107e2565b505f602082860101526020601f19601f83011685010191505092915050565b604081525f61082f60408301856107da565b828103602084015261084181856107da565b95945050505050565b606081525f61085c60608301866107da565b828103602084015261086e81866107da565b9150508215156040830152949350505050565b5f60208284031215610891575f80fd5b81356001600160a01b03811681146108a7575f80fd5b9392505050565b634e487b7160e01b5f52604160045260245ffd5b600181811c908216806108d657607f821691505b6020821081036108f457634e487b7160e01b5f52602260045260245ffd5b50919050565b601f82111561094157805f5260205f20601f840160051c8101602085101561091f5750805b601f840160051c820191505b8181101561093e575f815560010161092b565b50505b505050565b815167ffffffffffffffff811115610960576109606108ae565b6109748161096e84546108c2565b846108fa565b602080601f8311600181146109a7575f84156109905750858301515b5f19600386901b1c1916600185901b1785556109fe565b5f85815260208120601f198616915b828110156109d5578886015182559484019460019091019084016109b6565b50858210156109f257878501515f19600388901b60f8161c191681555b505060018460011b0185555b505050505050565b81835281816020850137505f828201602090810191909152601f909101601f19169091010190565b604081525f610a41604083018688610a06565b8281036020840152610a54818587610a06565b979650505050505050565b67ffffffffffffffff831115610a7757610a776108ae565b610a8b83610a8583546108c2565b836108fa565b5f601f841160018114610abc575f8515610aa55750838201355b5f19600387901b1c1916600186901b17835561093e565b5f83815260208120601f198716915b82811015610aeb5786850135825560209485019460019092019101610acb565b5086821015610b07575f1960f88860031b161c19848701351681555b505060018560011b018355505050505056fea2646970667358221220819975f0f0ad1001e87b1a9f2bf582be5cd3a2b9ad2490332d1271ff7a5be4ae64736f6c63430008180033","linkReferences":{}},"methodIdentifiers":{"getIdentity(uint256)":"85e3f058","identities(uint256)":"eaaf77e6","owner()":"8da5cb5b","registerIdentity(uint256,string,string)":"21929e5e","renounceOwnership()":"715018a6","transferOwnership(address)":"f2fde38b","updateIdentity(uint256,string,string)":"af98283c"},"id":2}