{"abi":[{"type":"constructor","inputs":[],"stateMutability":"nonpayable"},{"type":"function","name":"approve","inputs":[{"name":"to","type":"address","internalType":"address"},{"name":"tokenId","type":"uint256","internalType":"uint256"}],"outputs":[],"stateMutability":"nonpayable"},{"type":"function","name":"authorizedMinters","inputs":[{"name":"","type":"address","internalType":"address"}],"outputs":[{"name":"","type":"bool","internalType":"bool"}],"stateMutability":"view"},{"type":"function","name":"balanceOf","inputs":[{"name":"owner","type":"address","internalType":"address"}],"outputs":[{"name":"","type":"uint256","internalType":"uint256"}],"stateMutability":"view"},{"type":"function","name":"getApproved","inputs":[{"name":"tokenId","type":"uint256","internalType":"uint256"}],"outputs":[{"name":"","type":"address","internalType":"address"}],"stateMutability":"view"},{"type":"function","name":"getItem","inputs":[{"name":"tokenId","type":"uint256","internalType":"uint256"}],"outputs":[{"name":"name","type":"string","internalType":"string"},{"name":"power","type":"uint256","internalType":"uint256"},{"name":"rarity","type":"uint8","internalType":"uint8"}],"stateMutability":"view"},{"type":"function","name":"isApprovedForAll","inputs":[{"name":"owner","type":"address","internalType":"address"},{"name":"operator","type":"address","internalType":"address"}],"outputs":[{"name":"","type":"bool","internalType":"bool"}],"stateMutability":"view"},{"type":"function","name":"items","inputs":[{"name":"","type":"uint256","internalType":"uint256"}],"outputs":[{"name":"name","type":"string","internalType":"string"},{"name":"power","type":"uint256","internalType":"uint256"},{"name":"rarity","type":"uint8","internalType":"uint8"}],"stateMutability":"view"},{"type":"function","name":"mint","inputs":[{"name":"to","type":"address","internalType":"address"},{"name":"name","type":"string","internalType":"string"},{"name":"power","type":"uint256","internalType":"uint256"},{"name":"rarity","type":"uint8","internalType":"uint8"}],"outputs":[{"name":"","type":"uint256","internalType":"uint256"}],"stateMutability":"nonpayable"},{"type":"function","name":"name","inputs":[],"outputs":[{"name":"","type":"string","internalType":"string"}],"stateMutability":"view"},{"type":"function","name":"owner","inputs":[],"outputs":[{"name":"","type":"address","internalType":"address"}],"stateMutability":"view"},{"type":"function","name":"ownerOf","inputs":[{"name":"tokenId","type":"uint256","internalType":"uint256"}],"outputs":[{"name":"","type":"address","internalType":"address"}],"stateMutability":"view"},{"type":"function","name":"renounceOwnership","inputs":[],"outputs":[],"stateMutability":"nonpayable"},{"type":"function","name":"safeTransferFrom","inputs":[{"name":"from","type":"address","internalType":"address"},{"name":"to","type":"address","internalType":"address"},{"name":"tokenId","type":"uint256","internalType":"uint256"}],"outputs":[],"stateMutability":"nonpayable"},{"type":"function","name":"safeTransferFrom","inputs":[{"name":"from","type":"address","internalType":"address"},{"name":"to","type":"address","internalType":"address"},{"name":"tokenId","type":"uint256","internalType":"uint256"},{"name":"data","type":"bytes","internalType":"bytes"}],"outputs":[],"stateMutability":"nonpayable"},{"type":"function","name":"setApprovalForAll","inputs":[{"name":"operator","type":"address","internalType":"address"},{"name":"approved","type":"bool","internalType":"bool"}],"outputs":[],"stateMutability":"nonpayable"},{"type":"function","name":"setAuthorizedMinter","inputs":[{"name":"minter","type":"address","internalType":"address"},{"name":"status","type":"bool","internalType":"bool"}],"outputs":[],"stateMutability":"nonpayable"},{"type":"function","name":"supportsInterface","inputs":[{"name":"interfaceId","type":"bytes4","internalType":"bytes4"}],"outputs":[{"name":"","type":"bool","internalType":"bool"}],"stateMutability":"view"},{"type":"function","name":"symbol","inputs":[],"outputs":[{"name":"","type":"string","internalType":"string"}],"stateMutability":"view"},{"type":"function","name":"tokenURI","inputs":[{"name":"tokenId","type":"uint256","internalType":"uint256"}],"outputs":[{"name":"","type":"string","internalType":"string"}],"stateMutability":"view"},{"type":"function","name":"totalSupply","inputs":[],"outputs":[{"name":"","type":"uint256","internalType":"uint256"}],"stateMutability":"view"},{"type":"function","name":"transferFrom","inputs":[{"name":"from","type":"address","internalType":"address"},{"name":"to","type":"address","internalType":"address"},{"name":"tokenId","type":"uint256","internalType":"uint256"}],"outputs":[],"stateMutability":"nonpayable"},{"type":"function","name":"transferOwnership","inputs":[{"name":"newOwner","type":"address","internalType":"address"}],"outputs":[],"stateMutability":"nonpayable"},{"type":"event","name":"Approval","inputs":[{"name":"owner","type":"address","indexed":true,"internalType":"address"},{"name":"approved","type":"address","indexed":true,"internalType":"address"},{"name":"tokenId","type":"uint256","indexed":true,"internalType":"uint256"}],"anonymous":false},{"type":"event","name":"ApprovalForAll","inputs":[{"name":"owner","type":"address","indexed":true,"internalType":"address"},{"name":"operator","type":"address","indexed":true,"internalType":"address"},{"name":"approved","type":"bool","indexed":false,"internalType":"bool"}],"anonymous":false},{"type":"event","name":"ItemMinted","inputs":[{"name":"tokenId","type":"uint256","indexed":true,"internalType":"uint256"},{"name":"to","type":"address","indexed":true,"internalType":"address"},{"name":"name","type":"string","indexed":false,"internalType":"string"},{"name":"power","type":"uint256","indexed":false,"internalType":"uint256"},{"name":"rarity","type":"uint8","indexed":false,"internalType":"uint8"}],"anonymous":false},{"type":"event","name":"MinterAuthorized","inputs":[{"name":"minter","type":"address","indexed":true,"internalType":"address"},{"name":"status","type":"bool","indexed":false,"internalType":"bool"}],"anonymous":false},{"type":"event","name":"OwnershipTransferred","inputs":[{"name":"previousOwner","type":"address","indexed":true,"internalType":"address"},{"name":"newOwner","type":"address","indexed":true,"internalType":"address"}],"anonymous":false},{"type":"event","name":"Transfer","inputs":[{"name":"from","type":"address","indexed":true,"internalType":"address"},{"name":"to","type":"address","indexed":true,"internalType":"address"},{"name":"tokenId","type":"uint256","indexed":true,"internalType":"uint256"}],"anonymous":false},{"type":"error","name":"ERC721IncorrectOwner","inputs":[{"name":"sender","type":"address","internalType":"address"},{"name":"tokenId","type":"uint256","internalType":"uint256"},{"name":"owner","type":"address","internalType":"address"}]},{"type":"error","name":"ERC721InsufficientApproval","inputs":[{"name":"operator","type":"address","internalType":"address"},{"name":"tokenId","type":"uint256","internalType":"uint256"}]},{"type":"error","name":"ERC721InvalidApprover","inputs":[{"name":"approver","type":"address","internalType":"address"}]},{"type":"error","name":"ERC721InvalidOperator","inputs":[{"name":"operator","type":"address","internalType":"address"}]},{"type":"error","name":"ERC721InvalidOwner","inputs":[{"name":"owner","type":"address","internalType":"address"}]},{"type":"error","name":"ERC721InvalidReceiver","inputs":[{"name":"receiver","type":"address","internalType":"address"}]},{"type":"error","name":"ERC721InvalidSender","inputs":[{"name":"sender","type":"address","internalType":"address"}]},{"type":"error","name":"ERC721NonexistentToken","inputs":[{"name":"tokenId","type":"uint256","internalType":"uint256"}]},{"type":"error","name":"OwnableInvalidOwner","inputs":[{"name":"owner","type":"address","internalType":"address"}]},{"type":"error","name":"OwnableUnauthorizedAccount","inputs":[{"name":"account","type":"address","internalType":"address"}]}],"bytecode":{"object":"0x6080604052600160075534801562000015575f80fd5b50336040518060400160405280600f81526020016e4167656e744172656e61204974656d60881b815250604051806040016040528060048152602001634954454d60e01b815250815f90816200006c9190620001ad565b5060016200007b8282620001ad565b5050506001600160a01b038116620000ac57604051631e4fbdf760e01b81525f600482015260240160405180910390fd5b620000b781620000be565b5062000279565b600680546001600160a01b038381166001600160a01b0319831681179093556040519116919082907f8be0079c531659141344cd1fd0a4f28419497f9722a3daafe3b4186f6b6457e0905f90a35050565b634e487b7160e01b5f52604160045260245ffd5b600181811c908216806200013857607f821691505b6020821081036200015757634e487b7160e01b5f52602260045260245ffd5b50919050565b601f821115620001a857805f5260205f20601f840160051c81016020851015620001845750805b601f840160051c820191505b81811015620001a5575f815560010162000190565b50505b505050565b81516001600160401b03811115620001c957620001c96200010f565b620001e181620001da845462000123565b846200015d565b602080601f83116001811462000217575f8415620001ff5750858301515b5f19600386901b1c1916600185901b17855562000271565b5f85815260208120601f198616915b82811015620002475788860151825594840194600190910190840162000226565b50858210156200026557878501515f19600388901b60f8161c191681555b505060018460011b0185555b505050505050565b61174280620002875f395ff3fe608060405234801561000f575f80fd5b506004361061013d575f3560e01c8063715018a6116100b4578063b88d4fde11610079578063b88d4fde146102ab578063bfb231d2146102be578063c87b56dd146102d1578063e985e9c5146102e4578063ed58bad8146102f7578063f2fde38b1461030a575f80fd5b8063715018a6146102555780638da5cb5b1461025d57806395d89b411461026e578063a22cb46514610276578063aa2fe91b14610289575f80fd5b806318160ddd1161010557806318160ddd146101df57806323b872dd146101e75780633129e773146101fa57806342842e0e1461021c5780636352211e1461022f57806370a0823114610242575f80fd5b806301ffc9a71461014157806306fdde0314610169578063081812fc1461017e578063095ea7b3146101a9578063125e29bd146101be575b5f80fd5b61015461014f36600461118c565b61031d565b60405190151581526020015b60405180910390f35b61017161036e565b60405161016091906111f4565b61019161018c366004611206565b6103fd565b6040516001600160a01b039091168152602001610160565b6101bc6101b7366004611238565b610424565b005b6101d16101cc366004611260565b610433565b604051908152602001610160565b6101d16105c1565b6101bc6101f53660046112ff565b6105d6565b61020d610208366004611206565b61065f565b60405161016093929190611338565b6101bc61022a3660046112ff565b610770565b61019161023d366004611206565b61078f565b6101d1610250366004611363565b610799565b6101bc6107de565b6006546001600160a01b0316610191565b6101716107f1565b6101bc61028436600461137c565b610800565b610154610297366004611363565b60096020525f908152604090205460ff1681565b6101bc6102b93660046113c9565b61080b565b61020d6102cc366004611206565b610823565b6101716102df366004611206565b6108ce565b6101546102f236600461149e565b61093f565b6101bc61030536600461137c565b61096c565b6101bc610318366004611363565b6109d2565b5f6001600160e01b031982166380ac58cd60e01b148061034d57506001600160e01b03198216635b5e139f60e01b145b8061036857506301ffc9a760e01b6001600160e01b03198316145b92915050565b60605f805461037c906114cf565b80601f01602080910402602001604051908101604052809291908181526020018280546103a8906114cf565b80156103f35780601f106103ca576101008083540402835291602001916103f3565b820191905f5260205f20905b8154815290600101906020018083116103d657829003601f168201915b5050505050905090565b5f61040782610a0f565b505f828152600460205260409020546001600160a01b0316610368565b61042f828233610a47565b5050565b5f6104466006546001600160a01b031690565b6001600160a01b0316336001600160a01b031614806104735750335f9081526009602052604090205460ff165b6104bd5760405162461bcd60e51b8152602060048201526016602482015275139bdd08185d5d1a1bdc9a5e9959081d1bc81b5a5b9d60521b60448201526064015b60405180910390fd5b600780545f91826104cd8361151b565b9190505590506104dd8782610a54565b604051806060016040528087878080601f0160208091040260200160405190810160405280939291908181526020018383808284375f920182905250938552505050602080830188905260ff87166040938401528482526008905220815181906105479082611577565b50602082015160018201556040918201516002909101805460ff191660ff909216919091179055516001600160a01b0388169082907f4159617894a3f678f593ff02a92160ef264125812f56a4dc68f5dbf5bf89bbf8906105af908a908a908a908a90611633565b60405180910390a39695505050505050565b5f60016007546105d19190611674565b905090565b6001600160a01b0382166105ff57604051633250574960e11b81525f60048201526024016104b4565b5f61060b838333610a6d565b9050836001600160a01b0316816001600160a01b031614610659576040516364283d7b60e01b81526001600160a01b03808616600483015260248201849052821660448201526064016104b4565b50505050565b60605f808061066d8561078f565b6001600160a01b0316036106b95760405162461bcd60e51b8152602060048201526013602482015272125d195b48191bd95cc81b9bdd08195e1a5cdd606a1b60448201526064016104b4565b5f84815260086020526040902060018101546002820154825483929160ff169083906106e4906114cf565b80601f0160208091040260200160405190810160405280929190818152602001828054610710906114cf565b801561075b5780601f106107325761010080835404028352916020019161075b565b820191905f5260205f20905b81548152906001019060200180831161073e57829003601f168201915b50505050509250935093509350509193909250565b61078a83838360405180602001604052805f81525061080b565b505050565b5f61036882610a0f565b5f6001600160a01b0382166107c3576040516322718ad960e21b81525f60048201526024016104b4565b506001600160a01b03165f9081526003602052604090205490565b6107e6610b5f565b6107ef5f610b8c565b565b60606001805461037c906114cf565b61042f338383610bdd565b6108168484846105d6565b6106593385858585610ca4565b60086020525f908152604090208054819061083d906114cf565b80601f0160208091040260200160405190810160405280929190818152602001828054610869906114cf565b80156108b45780601f1061088b576101008083540402835291602001916108b4565b820191905f5260205f20905b81548152906001019060200180831161089757829003601f168201915b50505050600183015460029093015491929160ff16905083565b60606108d982610a0f565b505f6108ef60408051602081019091525f815290565b90505f81511161090d5760405180602001604052805f815250610938565b8061091784610dcc565b604051602001610928929190611687565b6040516020818303038152906040525b9392505050565b6001600160a01b039182165f90815260056020908152604080832093909416825291909152205460ff1690565b610974610b5f565b6001600160a01b0382165f81815260096020908152604091829020805460ff191685151590811790915591519182527f9041c22ed79d1c19c69cc22fd9e38c93da4f2dd8cd32580594e232a8a18541cb910160405180910390a25050565b6109da610b5f565b6001600160a01b038116610a0357604051631e4fbdf760e01b81525f60048201526024016104b4565b610a0c81610b8c565b50565b5f818152600260205260408120546001600160a01b03168061036857604051637e27328960e01b8152600481018490526024016104b4565b61078a8383836001610e5c565b61042f828260405180602001604052805f815250610f60565b5f828152600260205260408120546001600160a01b0390811690831615610a9957610a99818486610f77565b6001600160a01b03811615610ad357610ab45f855f80610e5c565b6001600160a01b0381165f90815260036020526040902080545f190190555b6001600160a01b03851615610b01576001600160a01b0385165f908152600360205260409020805460010190555b5f8481526002602052604080822080546001600160a01b0319166001600160a01b0389811691821790925591518793918516917fddf252ad1be2c89b69c2b068fc378daa952ba7f163c4a11628f55a4df523b3ef91a4949350505050565b6006546001600160a01b031633146107ef5760405163118cdaa760e01b81523360048201526024016104b4565b600680546001600160a01b038381166001600160a01b0319831681179093556040519116919082907f8be0079c531659141344cd1fd0a4f28419497f9722a3daafe3b4186f6b6457e0905f90a35050565b6001600160a01b038316610c065760405163a9fbf51f60e01b81525f60048201526024016104b4565b6001600160a01b038216610c3857604051630b61174360e31b81526001600160a01b03831660048201526024016104b4565b6001600160a01b038381165f81815260056020908152604080832094871680845294825291829020805460ff191686151590811790915591519182527f17307eab39ab6107e8899845ad3d59bd9653f200f220920489ca2b5937696c31910160405180910390a3505050565b6001600160a01b0383163b15610dc557604051630a85bd0160e11b81526001600160a01b0384169063150b7a0290610ce69088908890879087906004016116b5565b6020604051808303815f875af1925050508015610d20575060408051601f3d908101601f19168201909252610d1d918101906116f1565b60015b610d87573d808015610d4d576040519150601f19603f3d011682016040523d82523d5f602084013e610d52565b606091505b5080515f03610d7f57604051633250574960e11b81526001600160a01b03851660048201526024016104b4565b805160208201fd5b6001600160e01b03198116630a85bd0160e11b14610dc357604051633250574960e11b81526001600160a01b03851660048201526024016104b4565b505b5050505050565b60605f610dd883610fdb565b60010190505f8167ffffffffffffffff811115610df757610df76113b5565b6040519080825280601f01601f191660200182016040528015610e21576020820181803683370190505b5090508181016020015b5f19016f181899199a1a9b1b9c1cb0b131b232b360811b600a86061a8153600a8504945084610e2b57509392505050565b8080610e7057506001600160a01b03821615155b15610f31575f610e7f84610a0f565b90506001600160a01b03831615801590610eab5750826001600160a01b0316816001600160a01b031614155b8015610ebe5750610ebc818461093f565b155b15610ee75760405163a9fbf51f60e01b81526001600160a01b03841660048201526024016104b4565b8115610f2f5783856001600160a01b0316826001600160a01b03167f8c5be1e5ebec7d5bd14f71427d1e84f3dd0314c0f7b2291e5b200ac8c7c3b92560405160405180910390a45b505b50505f90815260046020526040902080546001600160a01b0319166001600160a01b0392909216919091179055565b610f6a83836110b2565b61078a335f858585610ca4565b610f82838383611113565b61078a576001600160a01b038316610fb057604051637e27328960e01b8152600481018290526024016104b4565b60405163177e802f60e01b81526001600160a01b0383166004820152602481018290526044016104b4565b5f8072184f03e93ff9f4daa797ed6e38ed64bf6a1f0160401b83106110195772184f03e93ff9f4daa797ed6e38ed64bf6a1f0160401b830492506040015b6d04ee2d6d415b85acef81000000008310611045576d04ee2d6d415b85acef8100000000830492506020015b662386f26fc10000831061106357662386f26fc10000830492506010015b6305f5e100831061107b576305f5e100830492506008015b612710831061108f57612710830492506004015b606483106110a1576064830492506002015b600a83106103685760010192915050565b6001600160a01b0382166110db57604051633250574960e11b81525f60048201526024016104b4565b5f6110e783835f610a6d565b90506001600160a01b0381161561078a576040516339e3563760e11b81525f60048201526024016104b4565b5f6001600160a01b0383161580159061116f5750826001600160a01b0316846001600160a01b0316148061114c575061114c848461093f565b8061116f57505f828152600460205260409020546001600160a01b038481169116145b949350505050565b6001600160e01b031981168114610a0c575f80fd5b5f6020828403121561119c575f80fd5b813561093881611177565b5f5b838110156111c15781810151838201526020016111a9565b50505f910152565b5f81518084526111e08160208601602086016111a7565b601f01601f19169290920160200192915050565b602081525f61093860208301846111c9565b5f60208284031215611216575f80fd5b5035919050565b80356001600160a01b0381168114611233575f80fd5b919050565b5f8060408385031215611249575f80fd5b6112528361121d565b946020939093013593505050565b5f805f805f60808688031215611274575f80fd5b61127d8661121d565b9450602086013567ffffffffffffffff80821115611299575f80fd5b818801915088601f8301126112ac575f80fd5b8135818111156112ba575f80fd5b8960208285010111156112cb575f80fd5b60208301965080955050505060408601359150606086013560ff811681146112f1575f80fd5b809150509295509295909350565b5f805f60608486031215611311575f80fd5b61131a8461121d565b92506113286020850161121d565b9150604084013590509250925092565b606081525f61134a60608301866111c9565b905083602083015260ff83166040830152949350505050565b5f60208284031215611373575f80fd5b6109388261121d565b5f806040838503121561138d575f80fd5b6113968361121d565b9150602083013580151581146113aa575f80fd5b809150509250929050565b634e487b7160e01b5f52604160045260245ffd5b5f805f80608085870312156113dc575f80fd5b6113e58561121d565b93506113f36020860161121d565b925060408501359150606085013567ffffffffffffffff80821115611416575f80fd5b818701915087601f830112611429575f80fd5b81358181111561143b5761143b6113b5565b604051601f8201601f19908116603f01168101908382118183101715611463576114636113b5565b816040528281528a602084870101111561147b575f80fd5b826020860160208301375f60208483010152809550505050505092959194509250565b5f80604083850312156114af575f80fd5b6114b88361121d565b91506114c66020840161121d565b90509250929050565b600181811c908216806114e357607f821691505b60208210810361150157634e487b7160e01b5f52602260045260245ffd5b50919050565b634e487b7160e01b5f52601160045260245ffd5b5f6001820161152c5761152c611507565b5060010190565b601f82111561078a57805f5260205f20601f840160051c810160208510156115585750805b601f840160051c820191505b81811015610dc5575f8155600101611564565b815167ffffffffffffffff811115611591576115916113b5565b6115a58161159f84546114cf565b84611533565b602080601f8311600181146115d8575f84156115c15750858301515b5f19600386901b1c1916600185901b178555610dc3565b5f85815260208120601f198616915b82811015611606578886015182559484019460019091019084016115e7565b508582101561162357878501515f19600388901b60f8161c191681555b5050505050600190811b01905550565b60608152836060820152838560808301375f608085830101525f6080601f19601f870116830101905083602083015260ff8316604083015295945050505050565b8181038181111561036857610368611507565b5f83516116988184602088016111a7565b8351908301906116ac8183602088016111a7565b01949350505050565b6001600160a01b03858116825284166020820152604081018390526080606082018190525f906116e7908301846111c9565b9695505050505050565b5f60208284031215611701575f80fd5b81516109388161117756fea2646970667358221220729eac54caa759fc456ff7d90547597d159a540cfde42c9c986f548f09b9a33964736f6c63430008180033","linkReferences":{}},"methodIdentifiers":{"approve(address,uint256)":"095ea7b3","authorizedMinters(address)":"aa2fe91b","balanceOf(address)":"70a08231","getApproved(uint256)":"081812fc","getItem(uint256)":"3129e773","isApprovedForAll(address,address)":"e985e9c5","items(uint256)":"bfb231d2","mint(address,string,uint256,uint8)":"125e29bd","name()":"06fdde03","owner()":"8da5cb5b","ownerOf(uint256)":"6352211e","renounceOwnership()":"715018a6","safeTransferFrom(address,address,uint256)":"42842e0e","safeTransferFrom(address,address,uint256,bytes)":"b88d4fde","setApprovalForAll(address,bool)":"a22cb465","setAuthorizedMinter(address,bool)":"ed58bad8","supportsInterface(bytes4)":"01ffc9a7","symbol()":"95d89b41","tokenURI(uint256)":"c87b56dd","totalSupply()":"18160ddd","transferFrom(address,address,uint256)":"23b872dd","transferOwnership(address)":"f2fde38b"},"id":3}