{"abi":[{"type":"constructor","inputs":[{"name":"_agentNFT","type":"address","internalType":"address"},{"name":"_petNFT","type":"address","internalType":"address"},{"name":"_itemNFT","type":"address","internalType":"address"},{"name":"_reputationRegistry","type":"address","internalType":"address"},{"name":"_identityRegistry","type":"address","internalType":"address"},{"name":"_tbaRegistry","type":"address","internalType":"address"}],"stateMutability":"nonpayable"},{"type":"function","name":"agentNFT","inputs":[],"outputs":[{"name":"","type":"address","internalType":"contract AgentNFT"}],"stateMutability":"view"},{"type":"function","name":"assignedPet","inputs":[{"name":"","type":"uint256","internalType":"uint256"}],"outputs":[{"name":"","type":"uint256","internalType":"uint256"}],"stateMutability":"view"},{"type":"function","name":"battle","inputs":[{"name":"agentA","type":"uint256","internalType":"uint256"},{"name":"agentB","type":"uint256","internalType":"uint256"}],"outputs":[{"name":"winner","type":"uint256","internalType":"uint256"},{"name":"lootId","type":"uint256","internalType":"uint256"}],"stateMutability":"nonpayable"},{"type":"function","name":"characterOf","inputs":[{"name":"","type":"address","internalType":"address"}],"outputs":[{"name":"","type":"uint256","internalType":"uint256"}],"stateMutability":"view"},{"type":"function","name":"hasCharacter","inputs":[{"name":"","type":"address","internalType":"address"}],"outputs":[{"name":"","type":"bool","internalType":"bool"}],"stateMutability":"view"},{"type":"function","name":"identityRegistry","inputs":[],"outputs":[{"name":"","type":"address","internalType":"contract IdentityRegistry"}],"stateMutability":"view"},{"type":"function","name":"itemNFT","inputs":[],"outputs":[{"name":"","type":"address","internalType":"contract ItemNFT"}],"stateMutability":"view"},{"type":"function","name":"levelUpCharacter","inputs":[{"name":"agentId","type":"uint256","internalType":"uint256"}],"outputs":[],"stateMutability":"payable"},{"type":"function","name":"owner","inputs":[],"outputs":[{"name":"","type":"address","internalType":"address"}],"stateMutability":"view"},{"type":"function","name":"petNFT","inputs":[],"outputs":[{"name":"","type":"address","internalType":"contract PetNFT"}],"stateMutability":"view"},{"type":"function","name":"registerAgent","inputs":[{"name":"to","type":"address","internalType":"address"},{"name":"name","type":"string","internalType":"string"},{"name":"metadataURI","type":"string","internalType":"string"}],"outputs":[{"name":"","type":"uint256","internalType":"uint256"}],"stateMutability":"nonpayable"},{"type":"function","name":"registerAndAssignPet","inputs":[{"name":"agentId","type":"uint256","internalType":"uint256"},{"name":"petName","type":"string","internalType":"string"},{"name":"personality","type":"uint8","internalType":"uint8"}],"outputs":[{"name":"","type":"uint256","internalType":"uint256"}],"stateMutability":"nonpayable"},{"type":"function","name":"registered","inputs":[{"name":"","type":"uint256","internalType":"uint256"}],"outputs":[{"name":"","type":"bool","internalType":"bool"}],"stateMutability":"view"},{"type":"function","name":"renounceOwnership","inputs":[],"outputs":[],"stateMutability":"nonpayable"},{"type":"function","name":"reputationRegistry","inputs":[],"outputs":[{"name":"","type":"address","internalType":"contract ReputationRegistry"}],"stateMutability":"view"},{"type":"function","name":"tbaRegistry","inputs":[],"outputs":[{"name":"","type":"address","internalType":"contract TBARegistry"}],"stateMutability":"view"},{"type":"function","name":"transferOwnership","inputs":[{"name":"newOwner","type":"address","internalType":"address"}],"outputs":[],"stateMutability":"nonpayable"},{"type":"function","name":"updatePetMood","inputs":[{"name":"petId","type":"uint256","internalType":"uint256"},{"name":"newMood","type":"uint8","internalType":"uint8"}],"outputs":[],"stateMutability":"nonpayable"},{"type":"event","name":"AgentRegistered","inputs":[{"name":"agentId","type":"uint256","indexed":true,"internalType":"uint256"},{"name":"owner","type":"address","indexed":true,"internalType":"address"}],"anonymous":false},{"type":"event","name":"BattleResolved","inputs":[{"name":"agentA","type":"uint256","indexed":true,"internalType":"uint256"},{"name":"agentB","type":"uint256","indexed":true,"internalType":"uint256"},{"name":"winner","type":"uint256","indexed":false,"internalType":"uint256"},{"name":"lootId","type":"uint256","indexed":false,"internalType":"uint256"}],"anonymous":false},{"type":"event","name":"MoodUpdated","inputs":[{"name":"petId","type":"uint256","indexed":true,"internalType":"uint256"},{"name":"newMood","type":"uint8","indexed":false,"internalType":"uint8"}],"anonymous":false},{"type":"event","name":"OwnershipTransferred","inputs":[{"name":"previousOwner","type":"address","indexed":true,"internalType":"address"},{"name":"newOwner","type":"address","indexed":true,"internalType":"address"}],"anonymous":false},{"type":"event","name":"PetAssigned","inputs":[{"name":"agentId","type":"uint256","indexed":true,"internalType":"uint256"},{"name":"petId","type":"uint256","indexed":true,"internalType":"uint256"}],"anonymous":false},{"type":"error","name":"OwnableInvalidOwner","inputs":[{"name":"owner","type":"address","internalType":"address"}]},{"type":"error","name":"OwnableUnauthorizedAccount","inputs":[{"name":"account","type":"address","internalType":"address"}]}],"bytecode":{"object":"0x608060405234801562000010575f80fd5b5060405162001c1138038062001c11833981016040819052620000339162000331565b33806200005957604051631e4fbdf760e01b81525f600482015260240160405180910390fd5b6200006481620002c6565b50600180546001600160a01b03199081166001600160a01b0389811691909117835560028054831689831617905560038054831688831617905560048054831687831617905560058054831686831617905560068054909216908416179055600c805491820181555f5260408051808201909152600b81526a119b185b594814dddbdc9960aa1b60208201525f8051602062001bf1833981519152909101906200010f90826200044c565b50600c80546001810182555f9190915260408051808201909152600a8152691258d94814da1a595b1960b21b60208201525f8051602062001bf1833981519152909101906200015f90826200044c565b50600c80546001810182555f9190915260408051808201909152600d81526c2a343ab73232b91029ba30b33360991b60208201525f8051602062001bf183398151915290910190620001b290826200044c565b50600c80546001810182555f829052604080518082019091529182526b536861646f7720436c6f616b60a01b60208301525f8051602062001bf183398151915201906200020090826200044c565b50600c80546001810182555f829052604080518082019091529182526b4372797374616c2048656c6d60a01b60208301525f8051602062001bf183398151915201906200024e90826200044c565b5050600d8054600181810183555f83905260327fd7b6990105719101dabeb77144f2a3385c8033acd3af97e9423a695e81ad1eb5928301558254808201845560239083015582548082018455603c90830155825480820184556019908301558254908101909255602d91015550620005189350505050565b5f80546001600160a01b038381166001600160a01b0319831681178455604051919092169283917f8be0079c531659141344cd1fd0a4f28419497f9722a3daafe3b4186f6b6457e09190a35050565b80516001600160a01b03811681146200032c575f80fd5b919050565b5f805f805f8060c0878903121562000347575f80fd5b620003528762000315565b9550620003626020880162000315565b9450620003726040880162000315565b9350620003826060880162000315565b9250620003926080880162000315565b9150620003a260a0880162000315565b90509295509295509295565b634e487b7160e01b5f52604160045260245ffd5b600181811c90821680620003d757607f821691505b602082108103620003f657634e487b7160e01b5f52602260045260245ffd5b50919050565b601f8211156200044757805f5260205f20601f840160051c81016020851015620004235750805b601f840160051c820191505b8181101562000444575f81556001016200042f565b50505b505050565b81516001600160401b03811115620004685762000468620003ae565b6200048081620004798454620003c2565b84620003fc565b602080601f831160018114620004b6575f84156200049e5750858301515b5f19600386901b1c1916600185901b17855562000510565b5f85815260208120601f198616915b82811015620004e657888601518255948401946001909101908401620004c5565b50858210156200050457878501515f19600388901b60f8161c191681555b505060018460011b0185555b505050505050565b6116cb80620005265f395ff3fe608060405260043610610105575f3560e01c8063715018a611610092578063c8db44e311610062578063c8db44e3146102e8578063e6cf134614610307578063f2fde38b14610345578063f9dde60714610364578063ff59b83214610392575f80fd5b8063715018a61461027a5780637216fe481461028e5780637c8f3b35146102ad5780638da5cb5b146102cc575f80fd5b8063468d198d116100d8578063468d198d146101d157806355797104146101f057806357d1f9101461021b5780636dd988671461023a5780636e37898d14610259575f80fd5b8063134e18f4146101095780632a0c5221146101455780632dbad651146101795780633fd773e9146101b2575b5f80fd5b348015610114575f80fd5b50600554610128906001600160a01b031681565b6040516001600160a01b0390911681526020015b60405180910390f35b348015610150575f80fd5b5061016461015f3660046110c7565b6103a5565b6040805192835260208301919091520161013c565b348015610184575f80fd5b506101a46101933660046110fb565b600a6020525f908152604090205481565b60405190815260200161013c565b3480156101bd575f80fd5b50600154610128906001600160a01b031681565b3480156101dc575f80fd5b50600654610128906001600160a01b031681565b3480156101fb575f80fd5b506101a461020a36600461111d565b60076020525f908152604090205481565b348015610226575f80fd5b50600354610128906001600160a01b031681565b348015610245575f80fd5b50600254610128906001600160a01b031681565b348015610264575f80fd5b50610278610273366004611142565b610784565b005b348015610285575f80fd5b5061027861082a565b348015610299575f80fd5b506101a46102a83660046111ae565b61083d565b3480156102b8575f80fd5b506101a46102c736600461122b565b610a58565b3480156102d7575f80fd5b505f546001600160a01b0316610128565b3480156102f3575f80fd5b50600454610128906001600160a01b031681565b348015610312575f80fd5b5061033561032136600461111d565b60086020525f908152604090205460ff1681565b604051901515815260200161013c565b348015610350575f80fd5b5061027861035f3660046110fb565b610c3c565b34801561036f575f80fd5b5061033561037e3660046110fb565b60096020525f908152604090205460ff1681565b6102786103a036600461111d565b610c79565b5f82815260086020526040812054819060ff1680156103d157505f8381526008602052604090205460ff165b6104225760405162461bcd60e51b815260206004820152601e60248201527f426f7468206167656e7473206d7573742062652072656769737465726564000060448201526064015b60405180910390fd5b8284036104665760405162461bcd60e51b815260206004820152601260248201527121b0b73737ba103130ba3a36329039b2b63360711b6044820152606401610419565b5f61047085610e6f565b90505f61047c85610e6f565b90505f42448888600b5f8154809291906104959061129a565b909155506040805160208101969096528501939093526060840191909152608083015260a082015260c00160408051601f19818403018152919052805160209091012090505f6104e583856112b2565b9050836104f282846112df565b106104fd57866104ff565b875b95505f88871461050f5788610511565b875b60048054604051639e6611a560e01b81529293506001600160a01b031691639e6611a591610545918b910190815260200190565b5f604051808303815f87803b15801561055c575f80fd5b505af115801561056e573d5f803e3d5ffd5b5050600480546040516330113a1f60e11b81529182018590526001600160a01b03169250636022743e91506024015f604051808303815f87803b1580156105b3575f80fd5b505af11580156105c5573d5f803e3d5ffd5b50506001546040516331a9108f60e11b8152600481018b90525f93506001600160a01b039091169150636352211e90602401602060405180830381865afa158015610612573d5f803e3d5ffd5b505050506040513d601f19601f8201168201806040525081019061063691906112f2565b600c549091505f9061064890866112df565b90505f600561065860648861130d565b61066291906112df565b600354600c80549293506001600160a01b039091169163125e29bd9186918690811061069057610690611320565b905f5260205f200184600a6106a59190611334565b60ff16600d87815481106106bb576106bb611320565b905f5260205f2001546106ce91906112b2565b856040518563ffffffff1660e01b81526004016106ee9493929190611357565b6020604051808303815f875af115801561070a573d5f803e3d5ffd5b505050506040513d601f19601f8201168201806040525081019061072e9190611423565b98508a8c7fc88dbeb571a08bdf0898c2b49c09dd437a450eca35b7a8370cdf65c47961e1ab8c8c60405161076c929190918252602082015260400190565b60405180910390a350505050505050505b9250929050565b61078c61104c565b60025460405163a743e3f360e01b81526004810184905260ff831660248201526001600160a01b039091169063a743e3f3906044015f604051808303815f87803b1580156107d8575f80fd5b505af11580156107ea573d5f803e3d5ffd5b505060405160ff841681528492507f463c8d64c8e30629de6555db490c0f5eab2dbef4b56da86972880aa71892992a915060200160405180910390a25050565b61083261104c565b61083b5f611078565b565b5f61084661104c565b6001600160a01b0386165f9081526009602052604090205460ff16156108ae5760405162461bcd60e51b815260206004820152601e60248201527f57616c6c657420616c72656164792068617320612063686172616374657200006044820152606401610419565b60015460405163d0def52160e01b81525f916001600160a01b03169063d0def521906108e2908a908a908a90600401611462565b6020604051808303815f875af11580156108fe573d5f803e3d5ffd5b505050506040513d601f19601f820116820180604052508101906109229190611423565b6005546040516310c94f2f60e11b81529192506001600160a01b0316906321929e5e9061095b9084908a908a908a908a90600401611486565b5f604051808303815f87803b158015610972575f80fd5b505af1158015610984573d5f803e3d5ffd5b505060048054604051632bc71cd960e01b81529182018590526001600160a01b03169250632bc71cd991506024015f604051808303815f87803b1580156109c9575f80fd5b505af11580156109db573d5f803e3d5ffd5b505050506001600160a01b0387165f8181526009602090815260408083208054600160ff199182168117909255600a845282852087905586855260089093528184208054909316179091555183917fba9d3be5149ecab5ff8e380633795e5d9153c2f0e1ec952dd1de4611d661c9f591a390505b95945050505050565b5f610a6161104c565b5f8581526008602052604090205460ff16610ab55760405162461bcd60e51b81526020600482015260146024820152731059d95b9d081b9bdd081c9959da5cdd195c995960621b6044820152606401610419565b5f8581526007602052604090205415610b105760405162461bcd60e51b815260206004820152601760248201527f4167656e7420616c7265616479206861732061207065740000000000000000006044820152606401610419565b6001546040516331a9108f60e11b8152600481018790525f916001600160a01b031690636352211e90602401602060405180830381865afa158015610b57573d5f803e3d5ffd5b505050506040513d601f19601f82011682018060405250810190610b7b91906112f2565b600254604051636a4b888360e01b81529192505f916001600160a01b0390911690636a4b888390610bb69085908a908a908a906004016114be565b6020604051808303815f875af1158015610bd2573d5f803e3d5ffd5b505050506040513d601f19601f82011682018060405250810190610bf69190611423565b5f8881526007602052604080822083905551919250829189917f412c82fb1898a9df79af507cf563efba3ef38cfd27d28b41bc805cbd5ede60a191a39695505050505050565b610c4461104c565b6001600160a01b038116610c6d57604051631e4fbdf760e01b81525f6004820152602401610419565b610c7681611078565b50565b6001546040516331a9108f60e11b81526004810183905233916001600160a01b031690636352211e90602401602060405180830381865afa158015610cc0573d5f803e3d5ffd5b505050506040513d601f19601f82011682018060405250810190610ce491906112f2565b6001600160a01b031614610d2f5760405162461bcd60e51b81526020600482015260126024820152712737ba103cb7bab91031b430b930b1ba32b960711b6044820152606401610419565b66b1a2bc2ec50000341015610d865760405162461bcd60e51b815260206004820152601e60248201527f496e73756666696369656e74204156415820666f72204c6576656c20557000006044820152606401610419565b600154604051632de5aaf760e01b8152600481018390525f916001600160a01b031690632de5aaf7906024015f60405180830381865afa158015610dcc573d5f803e3d5ffd5b505050506040513d5f823e601f3d908101601f19168201604052610df391908101906115ae565b600180549193506001600160a01b0390911691506370a93b36908490610e1a9085906112b2565b6040516001600160e01b031960e085901b168152600481019290925260248201526044015f604051808303815f87803b158015610e55575f80fd5b505af1158015610e67573d5f803e3d5ffd5b505050505050565b600480546040516389370d8b60e01b81529182018390525f9182916001600160a01b0316906389370d8b90602401606060405180830381865afa158015610eb8573d5f803e3d5ffd5b505050506040513d601f19601f82011682018060405250810190610edc91906115f2565b5f86815260076020526040812054919450925090508015610fa257600254604051631675546560e21b8152600481018390525f916001600160a01b0316906359d55194906024015f60405180830381865afa158015610f3d573d5f803e3d5ffd5b505050506040513d5f823e601f3d908101601f19168201604052610f64919081019061161d565b509150508060ff16600103610f7c5760149250610fa0565b8060ff16600403610f9057601e9250610fa0565b8060ff16600203610fa057600f92505b505b600154604051632de5aaf760e01b8152600481018790525f916001600160a01b031690632de5aaf7906024015f60405180830381865afa158015610fe8573d5f803e3d5ffd5b505050506040513d5f823e601f3d908101601f1916820160405261100f91908101906115ae565b91505f905061101f82600a61167e565b90508061102c85876112b2565b61103691906112b2565b61104190600a6112b2565b979650505050505050565b5f546001600160a01b0316331461083b5760405163118cdaa760e01b8152336004820152602401610419565b5f80546001600160a01b038381166001600160a01b0319831681178455604051919092169283917f8be0079c531659141344cd1fd0a4f28419497f9722a3daafe3b4186f6b6457e09190a35050565b5f80604083850312156110d8575f80fd5b50508035926020909101359150565b6001600160a01b0381168114610c76575f80fd5b5f6020828403121561110b575f80fd5b8135611116816110e7565b9392505050565b5f6020828403121561112d575f80fd5b5035919050565b60ff81168114610c76575f80fd5b5f8060408385031215611153575f80fd5b82359150602083013561116581611134565b809150509250929050565b5f8083601f840112611180575f80fd5b50813567ffffffffffffffff811115611197575f80fd5b60208301915083602082850101111561077d575f80fd5b5f805f805f606086880312156111c2575f80fd5b85356111cd816110e7565b9450602086013567ffffffffffffffff808211156111e9575f80fd5b6111f589838a01611170565b9096509450604088013591508082111561120d575f80fd5b5061121a88828901611170565b969995985093965092949392505050565b5f805f806060858703121561123e575f80fd5b84359350602085013567ffffffffffffffff81111561125b575f80fd5b61126787828801611170565b909450925050604085013561127b81611134565b939692955090935050565b634e487b7160e01b5f52601160045260245ffd5b5f600182016112ab576112ab611286565b5060010190565b808201808211156112c5576112c5611286565b92915050565b634e487b7160e01b5f52601260045260245ffd5b5f826112ed576112ed6112cb565b500690565b5f60208284031215611302575f80fd5b8151611116816110e7565b5f8261131b5761131b6112cb565b500490565b634e487b7160e01b5f52603260045260245ffd5b60ff818116838216029081169081811461135057611350611286565b5092915050565b60018060a01b03851681525f6020608060208401525f86545f60018260011c9150600183168061138857607f831692505b6020831081036113a657634e487b7160e01b5f52602260045260245ffd5b6080880183905260a088018180156113c557600181146113db57611404565b60ff198616825284151560051b82019650611404565b5f8d8152602090205f5b868110156113fe578154848201529085019089016113e5565b83019750505b5050505050604085018790525060ff851660608501529150610a4f9050565b5f60208284031215611433575f80fd5b5051919050565b81835281816020850137505f828201602090810191909152601f909101601f19169091010190565b6001600160a01b03841681526040602082018190525f90610a4f908301848661143a565b858152606060208201525f61149f60608301868861143a565b82810360408401526114b281858761143a565b98975050505050505050565b6001600160a01b03851681526060602082018190525f906114e2908301858761143a565b905060ff8316604083015295945050505050565b634e487b7160e01b5f52604160045260245ffd5b5f82601f830112611519575f80fd5b815167ffffffffffffffff80821115611534576115346114f6565b604051601f8301601f19908116603f0116810190828211818310171561155c5761155c6114f6565b8160405283815260209250866020858801011115611578575f80fd5b5f91505b83821015611599578582018301518183018401529082019061157c565b5f602085830101528094505050505092915050565b5f80604083850312156115bf575f80fd5b825167ffffffffffffffff8111156115d5575f80fd5b6115e18582860161150a565b925050602083015190509250929050565b5f805f60608486031215611604575f80fd5b8351925060208401519150604084015190509250925092565b5f805f6060848603121561162f575f80fd5b835167ffffffffffffffff811115611645575f80fd5b6116518682870161150a565b935050602084015161166281611134565b604085015190925061167381611134565b809150509250925092565b80820281158282048414176112c5576112c561128656fea26469706673582212209489dc3acef84f9f7cadf8256dbfb3d88e4a144061ccf1faf71641d8f1397d2564736f6c63430008180033df6966c971051c3d54ec59162606531493a51404a002842f56009d7e5cf4a8c7","linkReferences":{}},"methodIdentifiers":{"agentNFT()":"3fd773e9","assignedPet(uint256)":"55797104","battle(uint256,uint256)":"2a0c5221","characterOf(address)":"2dbad651","hasCharacter(address)":"f9dde607","identityRegistry()":"134e18f4","itemNFT()":"57d1f910","levelUpCharacter(uint256)":"ff59b832","owner()":"8da5cb5b","petNFT()":"6dd98867","registerAgent(address,string,string)":"7216fe48","registerAndAssignPet(uint256,string,uint8)":"7c8f3b35","registered(uint256)":"e6cf1346","renounceOwnership()":"715018a6","reputationRegistry()":"c8db44e3","tbaRegistry()":"468d198d","transferOwnership(address)":"f2fde38b","updatePetMood(uint256,uint8)":"6e37898d"},"id":1}