{"abi":[{"type":"constructor","inputs":[],"stateMutability":"nonpayable"},{"type":"function","name":"buyItem","inputs":[{"name":"listingId","type":"uint256","internalType":"uint256"}],"outputs":[],"stateMutability":"payable"},{"type":"function","name":"cancelListing","inputs":[{"name":"listingId","type":"uint256","internalType":"uint256"}],"outputs":[],"stateMutability":"nonpayable"},{"type":"function","name":"listItem","inputs":[{"name":"nftContract","type":"address","internalType":"address"},{"name":"tokenId","type":"uint256","internalType":"uint256"},{"name":"price","type":"uint256","internalType":"uint256"}],"outputs":[{"name":"","type":"uint256","internalType":"uint256"}],"stateMutability":"nonpayable"},{"type":"function","name":"listings","inputs":[{"name":"","type":"uint256","internalType":"uint256"}],"outputs":[{"name":"seller","type":"address","internalType":"address"},{"name":"nftContract","type":"address","internalType":"address"},{"name":"tokenId","type":"uint256","internalType":"uint256"},{"name":"price","type":"uint256","internalType":"uint256"},{"name":"active","type":"bool","internalType":"bool"}],"stateMutability":"view"},{"type":"function","name":"owner","inputs":[],"outputs":[{"name":"","type":"address","internalType":"address"}],"stateMutability":"view"},{"type":"function","name":"renounceOwnership","inputs":[],"outputs":[],"stateMutability":"nonpayable"},{"type":"function","name":"transferOwnership","inputs":[{"name":"newOwner","type":"address","internalType":"address"}],"outputs":[],"stateMutability":"nonpayable"},{"type":"event","name":"Cancelled","inputs":[{"name":"listingId","type":"uint256","indexed":true,"internalType":"uint256"}],"anonymous":false},{"type":"event","name":"Listed","inputs":[{"name":"listingId","type":"uint256","indexed":true,"internalType":"uint256"},{"name":"seller","type":"address","indexed":true,"internalType":"address"},{"name":"nftContract","type":"address","indexed":false,"internalType":"address"},{"name":"tokenId","type":"uint256","indexed":false,"internalType":"uint256"},{"name":"price","type":"uint256","indexed":false,"internalType":"uint256"}],"anonymous":false},{"type":"event","name":"OwnershipTransferred","inputs":[{"name":"previousOwner","type":"address","indexed":true,"internalType":"address"},{"name":"newOwner","type":"address","indexed":true,"internalType":"address"}],"anonymous":false},{"type":"event","name":"Sold","inputs":[{"name":"listingId","type":"uint256","indexed":true,"internalType":"uint256"},{"name":"buyer","type":"address","indexed":true,"internalType":"address"},{"name":"price","type":"uint256","indexed":false,"internalType":"uint256"}],"anonymous":false},{"type":"error","name":"OwnableInvalidOwner","inputs":[{"name":"owner","type":"address","internalType":"address"}]},{"type":"error","name":"OwnableUnauthorizedAccount","inputs":[{"name":"account","type":"address","internalType":"address"}]}],"bytecode":{"object":"0x608060405260018055348015610013575f80fd5b50338061003957604051631e4fbdf760e01b81525f600482015260240160405180910390fd5b61004281610048565b50610097565b5f80546001600160a01b038381166001600160a01b0319831681178455604051919092169283917f8be0079c531659141344cd1fd0a4f28419497f9722a3daafe3b4186f6b6457e09190a35050565b610a57806100a45f395ff3fe60806040526004361061006e575f3560e01c80638da5cb5b1161004c5780638da5cb5b146100d9578063de74e57b146100ff578063e7fb74c71461018c578063f2fde38b1461019f575f80fd5b8063305a67a814610072578063715018a61461009357806389bfd38f146100a7575b5f80fd5b34801561007d575f80fd5b5061009161008c366004610923565b6101be565b005b34801561009e575f80fd5b5061009161029d565b3480156100b2575f80fd5b506100c66100c136600461094e565b6102b0565b6040519081526020015b60405180910390f35b3480156100e4575f80fd5b505f546040516001600160a01b0390911681526020016100d0565b34801561010a575f80fd5b50610157610119366004610923565b600260208190525f9182526040909120805460018201549282015460038301546004909301546001600160a01b039283169490921692909160ff1685565b604080516001600160a01b0396871681529590941660208601529284019190915260608301521515608082015260a0016100d0565b61009161019a366004610923565b6105cc565b3480156101aa575f80fd5b506100916101b9366004610980565b61086b565b5f818152600260205260409020600481015460ff166102195760405162461bcd60e51b81526020600482015260126024820152714c697374696e67206e6f742061637469766560701b60448201526064015b60405180910390fd5b80546001600160a01b031633146102635760405162461bcd60e51b815260206004820152600e60248201526d2737ba103a34329039b2b63632b960911b6044820152606401610210565b60048101805460ff1916905560405182907fc41d93b8bfbf9fd7cf5bfe271fd649ab6a6fec0ea101c23b82a2a28eca2533a9905f90a25050565b6102a56108a8565b6102ae5f6108d4565b565b5f8082116102f45760405162461bcd60e51b815260206004820152601160248201527005072696365206d757374206265203e203607c1b6044820152606401610210565b6040516331a9108f60e11b815260048101849052849033906001600160a01b03831690636352211e90602401602060405180830381865afa15801561033b573d5f803e3d5ffd5b505050506040513d601f19601f8201168201806040525081019061035f91906109a2565b6001600160a01b0316146103a55760405162461bcd60e51b815260206004820152600d60248201526c2737ba103a34329037bbb732b960991b6044820152606401610210565b60405163020604bf60e21b81526004810185905230906001600160a01b0383169063081812fc90602401602060405180830381865afa1580156103ea573d5f803e3d5ffd5b505050506040513d601f19601f8201168201806040525081019061040e91906109a2565b6001600160a01b0316148061048a575060405163e985e9c560e01b81523360048201523060248201526001600160a01b0382169063e985e9c590604401602060405180830381865afa158015610466573d5f803e3d5ffd5b505050506040513d601f19601f8201168201806040525081019061048a91906109bd565b6104d65760405162461bcd60e51b815260206004820152601860248201527f4d61726b6574706c616365206e6f7420617070726f76656400000000000000006044820152606401610210565b600180545f91826104e6836109f0565b909155506040805160a081018252338082526001600160a01b038a811660208085018281528587018d815260608088018e8152600160808a018181525f8d81526002808952908d90209b518c546001600160a01b0319908116918c16919091178d559651928c0180549097169290991691909117909455915195880195909555516003870155516004909501805460ff19169515159590951790945584519081529283018a905292820188905292935083917f723f73331eaee88eec7fc68ef60ab6ed15e4b90d0472b55eb92fa43910bab6dd910160405180910390a395945050505050565b5f818152600260205260409020600481015460ff166106225760405162461bcd60e51b81526020600482015260126024820152714c697374696e67206e6f742061637469766560701b6044820152606401610210565b806003015434101561066d5760405162461bcd60e51b8152602060048201526014602482015273125b9cdd59999a58da595b9d081c185e5b595b9d60621b6044820152606401610210565b6004818101805460ff19169055600182015482546002840154604051632142170760e11b81526001600160a01b0392831694810194909452336024850152604484015216906342842e0e906064015f604051808303815f87803b1580156106d2575f80fd5b505af11580156106e4573d5f803e3d5ffd5b5050825460038401546040515f94506001600160a01b039092169250908381818185875af1925050503d805f8114610737576040519150601f19603f3d011682016040523d82523d5f602084013e61073c565b606091505b505090508061077e5760405162461bcd60e51b815260206004820152600e60248201526d14185e5b595b9d0819985a5b195960921b6044820152606401610210565b816003015434111561081e5760038201545f90339061079d9034610a08565b6040515f81818185875af1925050503d805f81146107d6576040519150601f19603f3d011682016040523d82523d5f602084013e6107db565b606091505b505090508061081c5760405162461bcd60e51b815260206004820152600d60248201526c1499599d5b990819985a5b1959609a1b6044820152606401610210565b505b336001600160a01b0316837f66f5cd880edf48cdde6c966e5da0784fcc4c5e85572b8b3b62c4357798d447d7846003015460405161085e91815260200190565b60405180910390a3505050565b6108736108a8565b6001600160a01b03811661089c57604051631e4fbdf760e01b81525f6004820152602401610210565b6108a5816108d4565b50565b5f546001600160a01b031633146102ae5760405163118cdaa760e01b8152336004820152602401610210565b5f80546001600160a01b038381166001600160a01b0319831681178455604051919092169283917f8be0079c531659141344cd1fd0a4f28419497f9722a3daafe3b4186f6b6457e09190a35050565b5f60208284031215610933575f80fd5b5035919050565b6001600160a01b03811681146108a5575f80fd5b5f805f60608486031215610960575f80fd5b833561096b8161093a565b95602085013595506040909401359392505050565b5f60208284031215610990575f80fd5b813561099b8161093a565b9392505050565b5f602082840312156109b2575f80fd5b815161099b8161093a565b5f602082840312156109cd575f80fd5b8151801515811461099b575f80fd5b634e487b7160e01b5f52601160045260245ffd5b5f60018201610a0157610a016109dc565b5060010190565b81810381811115610a1b57610a1b6109dc565b9291505056fea2646970667358221220934517580677f0d946e9ea0aa5599c61a41d5bca51f0823d0b6885b9e7667ef864736f6c63430008180033","linkReferences":{}},"methodIdentifiers":{"buyItem(uint256)":"e7fb74c7","cancelListing(uint256)":"305a67a8","listItem(address,uint256,uint256)":"89bfd38f","listings(uint256)":"de74e57b","owner()":"8da5cb5b","renounceOwnership()":"715018a6","transferOwnership(address)":"f2fde38b"},"id":4}